{
  "_format": "hh-sol-artifact-1",
  "contractName": "NFTMarketplace",
  "sourceName": "contracts/nft/NFTMarketplace.sol",
  "abi": [
    {
      "anonymous": false,
      "inputs": [
        {
          "indexed": false,
          "internalType": "uint256",
          "name": "auctionId",
          "type": "uint256"
        },
        {
          "indexed": false,
          "internalType": "uint256",
          "name": "amount",
          "type": "uint256"
        },
        {
          "indexed": false,
          "internalType": "address",
          "name": "highestBidder",
          "type": "address"
        }
      ],
      "name": "Bid",
      "type": "event"
    },
    {
      "anonymous": false,
      "inputs": [
        {
          "indexed": false,
          "internalType": "uint256",
          "name": "auctionId",
          "type": "uint256"
        },
        {
          "indexed": false,
          "internalType": "address",
          "name": "highestBidder",
          "type": "address"
        }
      ],
      "name": "CloseAuction",
      "type": "event"
    },
    {
      "anonymous": false,
      "inputs": [
        {
          "indexed": false,
          "internalType": "uint256",
          "name": "auctionId",
          "type": "uint256"
        }
      ],
      "name": "EmergencyWithdrawal",
      "type": "event"
    },
    {
      "anonymous": false,
      "inputs": [
        {
          "indexed": false,
          "internalType": "uint256",
          "name": "auctionId",
          "type": "uint256"
        }
      ],
      "name": "List",
      "type": "event"
    },
    {
      "anonymous": false,
      "inputs": [
        {
          "indexed": true,
          "internalType": "address",
          "name": "previousOwner",
          "type": "address"
        },
        {
          "indexed": true,
          "internalType": "address",
          "name": "newOwner",
          "type": "address"
        }
      ],
      "name": "OwnershipTransferred",
      "type": "event"
    },
    {
      "anonymous": false,
      "inputs": [
        {
          "indexed": false,
          "internalType": "uint256",
          "name": "auctionId",
          "type": "uint256"
        },
        {
          "indexed": false,
          "internalType": "uint256",
          "name": "salesPrice",
          "type": "uint256"
        },
        {
          "indexed": false,
          "internalType": "address",
          "name": "token",
          "type": "address"
        },
        {
          "indexed": false,
          "internalType": "address",
          "name": "highestBidder",
          "type": "address"
        }
      ],
      "name": "Sold",
      "type": "event"
    },
    {
      "anonymous": false,
      "inputs": [
        {
          "indexed": false,
          "internalType": "uint256",
          "name": "auctionId",
          "type": "uint256"
        },
        {
          "indexed": false,
          "internalType": "address",
          "name": "account",
          "type": "address"
        }
      ],
      "name": "WithdrawAll",
      "type": "event"
    },
    {
      "inputs": [],
      "name": "MAX_AUCTION_TIME",
      "outputs": [
        {
          "internalType": "uint256",
          "name": "",
          "type": "uint256"
        }
      ],
      "stateMutability": "view",
      "type": "function"
    },
    {
      "inputs": [
        {
          "internalType": "uint256",
          "name": "",
          "type": "uint256"
        }
      ],
      "name": "auctionOwner",
      "outputs": [
        {
          "internalType": "address",
          "name": "",
          "type": "address"
        }
      ],
      "stateMutability": "view",
      "type": "function"
    },
    {
      "inputs": [
        {
          "internalType": "uint256",
          "name": "",
          "type": "uint256"
        }
      ],
      "name": "auctions",
      "outputs": [
        {
          "internalType": "address",
          "name": "nftToken",
          "type": "address"
        },
        {
          "internalType": "uint256",
          "name": "nftTokenId",
          "type": "uint256"
        },
        {
          "internalType": "address payable",
          "name": "owner",
          "type": "address"
        },
        {
          "internalType": "address",
          "name": "token",
          "type": "address"
        },
        {
          "internalType": "uint256",
          "name": "targetPrice",
          "type": "uint256"
        },
        {
          "internalType": "uint256",
          "name": "reservePrice",
          "type": "uint256"
        },
        {
          "internalType": "uint256",
          "name": "endTime",
          "type": "uint256"
        },
        {
          "internalType": "uint256",
          "name": "minIncrement",
          "type": "uint256"
        },
        {
          "internalType": "bool",
          "name": "isSettled",
          "type": "bool"
        },
        {
          "internalType": "address payable",
          "name": "highestBidder",
          "type": "address"
        },
        {
          "internalType": "enum NFTMarketplace.AuctionType",
          "name": "auctionType",
          "type": "uint8"
        },
        {
          "internalType": "bool",
          "name": "isSold",
          "type": "bool"
        }
      ],
      "stateMutability": "view",
      "type": "function"
    },
    {
      "inputs": [],
      "name": "auctionsLength",
      "outputs": [
        {
          "internalType": "uint256",
          "name": "",
          "type": "uint256"
        }
      ],
      "stateMutability": "view",
      "type": "function"
    },
    {
      "inputs": [
        {
          "internalType": "uint256",
          "name": "auctionId",
          "type": "uint256"
        },
        {
          "internalType": "uint256",
          "name": "amount",
          "type": "uint256"
        }
      ],
      "name": "bid",
      "outputs": [],
      "stateMutability": "payable",
      "type": "function"
    },
    {
      "inputs": [
        {
          "internalType": "uint256",
          "name": "",
          "type": "uint256"
        },
        {
          "internalType": "address",
          "name": "",
          "type": "address"
        }
      ],
      "name": "bidBalance",
      "outputs": [
        {
          "internalType": "uint256",
          "name": "",
          "type": "uint256"
        }
      ],
      "stateMutability": "view",
      "type": "function"
    },
    {
      "inputs": [
        {
          "internalType": "uint256",
          "name": "auctionId",
          "type": "uint256"
        }
      ],
      "name": "claim",
      "outputs": [],
      "stateMutability": "nonpayable",
      "type": "function"
    },
    {
      "inputs": [
        {
          "internalType": "uint256",
          "name": "auctionId",
          "type": "uint256"
        }
      ],
      "name": "closeAuction",
      "outputs": [],
      "stateMutability": "nonpayable",
      "type": "function"
    },
    {
      "inputs": [
        {
          "internalType": "address",
          "name": "_token",
          "type": "address"
        },
        {
          "internalType": "address",
          "name": "_nftToken",
          "type": "address"
        },
        {
          "internalType": "uint256",
          "name": "_nftTokenId",
          "type": "uint256"
        },
        {
          "internalType": "uint256",
          "name": "_targetPrice",
          "type": "uint256"
        },
        {
          "internalType": "uint256",
          "name": "_endTime",
          "type": "uint256"
        },
        {
          "internalType": "uint256",
          "name": "_increment",
          "type": "uint256"
        }
      ],
      "name": "createAuction",
      "outputs": [],
      "stateMutability": "nonpayable",
      "type": "function"
    },
    {
      "inputs": [
        {
          "internalType": "address",
          "name": "_token",
          "type": "address"
        },
        {
          "internalType": "address",
          "name": "_nftToken",
          "type": "address"
        },
        {
          "internalType": "uint256",
          "name": "_nftTokenId",
          "type": "uint256"
        },
        {
          "internalType": "enum NFTMarketplace.AuctionType",
          "name": "_auctionType",
          "type": "uint8"
        },
        {
          "internalType": "uint256",
          "name": "_price",
          "type": "uint256"
        },
        {
          "internalType": "uint256",
          "name": "_endTime",
          "type": "uint256"
        },
        {
          "internalType": "uint256",
          "name": "_increment",
          "type": "uint256"
        }
      ],
      "name": "createAuctionV2",
      "outputs": [],
      "stateMutability": "nonpayable",
      "type": "function"
    },
    {
      "inputs": [
        {
          "internalType": "uint256",
          "name": "auctionId",
          "type": "uint256"
        }
      ],
      "name": "emergencyWithdrawal",
      "outputs": [],
      "stateMutability": "nonpayable",
      "type": "function"
    },
    {
      "inputs": [
        {
          "internalType": "uint256",
          "name": "",
          "type": "uint256"
        }
      ],
      "name": "finalHighestBid",
      "outputs": [
        {
          "internalType": "uint256",
          "name": "",
          "type": "uint256"
        }
      ],
      "stateMutability": "view",
      "type": "function"
    },
    {
      "inputs": [],
      "name": "initialize",
      "outputs": [],
      "stateMutability": "nonpayable",
      "type": "function"
    },
    {
      "inputs": [
        {
          "internalType": "address",
          "name": "",
          "type": "address"
        },
        {
          "internalType": "uint256",
          "name": "",
          "type": "uint256"
        }
      ],
      "name": "lastPrice",
      "outputs": [
        {
          "internalType": "uint256",
          "name": "",
          "type": "uint256"
        }
      ],
      "stateMutability": "view",
      "type": "function"
    },
    {
      "inputs": [
        {
          "internalType": "address",
          "name": "",
          "type": "address"
        },
        {
          "internalType": "uint256",
          "name": "",
          "type": "uint256"
        }
      ],
      "name": "lastToken",
      "outputs": [
        {
          "internalType": "address",
          "name": "",
          "type": "address"
        }
      ],
      "stateMutability": "view",
      "type": "function"
    },
    {
      "inputs": [],
      "name": "owner",
      "outputs": [
        {
          "internalType": "address",
          "name": "",
          "type": "address"
        }
      ],
      "stateMutability": "view",
      "type": "function"
    },
    {
      "inputs": [
        {
          "internalType": "uint256",
          "name": "auctionId",
          "type": "uint256"
        }
      ],
      "name": "pickWinner",
      "outputs": [],
      "stateMutability": "nonpayable",
      "type": "function"
    },
    {
      "inputs": [],
      "name": "renounceOwnership",
      "outputs": [],
      "stateMutability": "nonpayable",
      "type": "function"
    },
    {
      "inputs": [
        {
          "internalType": "address",
          "name": "_token",
          "type": "address"
        },
        {
          "internalType": "bool",
          "name": "_active",
          "type": "bool"
        }
      ],
      "name": "setWhitelistedNFT",
      "outputs": [],
      "stateMutability": "nonpayable",
      "type": "function"
    },
    {
      "inputs": [],
      "name": "token",
      "outputs": [
        {
          "internalType": "contract IBEP20",
          "name": "",
          "type": "address"
        }
      ],
      "stateMutability": "view",
      "type": "function"
    },
    {
      "inputs": [
        {
          "internalType": "address",
          "name": "newOwner",
          "type": "address"
        }
      ],
      "name": "transferOwnership",
      "outputs": [],
      "stateMutability": "nonpayable",
      "type": "function"
    },
    {
      "inputs": [
        {
          "internalType": "address",
          "name": "",
          "type": "address"
        }
      ],
      "name": "whitelistedNFT",
      "outputs": [
        {
          "internalType": "bool",
          "name": "",
          "type": "bool"
        }
      ],
      "stateMutability": "view",
      "type": "function"
    },
    {
      "inputs": [
        {
          "internalType": "uint256",
          "name": "auctionId",
          "type": "uint256"
        }
      ],
      "name": "withdrawAll",
      "outputs": [],
      "stateMutability": "nonpayable",
      "type": "function"
    }
  ],
  "bytecode": "0x608060405234801561001057600080fd5b50613c46806100206000396000f3fe60806040526004361061013f5760003560e01c8063715018a6116100b6578063d3cc6eb21161006f578063d3cc6eb214610380578063ebd9298914610395578063edae3ccb146103b5578063f2fde38b146103ca578063f737d21d146103ea578063fc0c546a1461040a5761013f565b8063715018a6146102e15780638129fc1c146102f65780638da5cb5b1461030b578063958e2d31146103205780639b3e216b14610340578063a941e2f2146103605761013f565b806355c832d41161010857806355c832d4146101fc578063571a26a014610229578063598647f8146102615780635b5dacf1146102745780635ceb3c12146102a15780636109f2b9146102c15761013f565b806239522c1461014457806312b3d2c114610166578063236ed8f314610186578063379607f5146101a65780633ea273bf146101c6575b600080fd5b34801561015057600080fd5b5061016461015f3660046133dd565b61041f565b005b34801561017257600080fd5b5061016461018136600461330a565b610800565b34801561019257600080fd5b506101646101a13660046133dd565b610b16565b3480156101b257600080fd5b506101646101c13660046133dd565b6110b0565b3480156101d257600080fd5b506101e66101e1366004613397565b61150d565b6040516101f39190613b47565b60405180910390f35b34801561020857600080fd5b5061021c61021736600461327f565b61152a565b6040516101f3919061351f565b34801561023557600080fd5b506102496102443660046133dd565b61153f565b6040516101f39c9b9a99989796959493929190613499565b61016461026f366004613421565b6115ba565b34801561028057600080fd5b5061029461028f3660046133dd565b611e47565b6040516101f39190613448565b3480156102ad57600080fd5b506101646102bc36600461329a565b611e62565b3480156102cd57600080fd5b506101646102dc366004613360565b612177565b3480156102ed57600080fd5b506101646121e1565b34801561030257600080fd5b50610164612258565b34801561031757600080fd5b50610294612311565b34801561032c57600080fd5b5061016461033b3660046133dd565b612320565b34801561034c57600080fd5b506101e661035b3660046133dd565b61257b565b34801561036c57600080fd5b506101e661037b3660046133f5565b61258d565b34801561038c57600080fd5b506101e66125aa565b3480156103a157600080fd5b506102946103b0366004613397565b6125b0565b3480156103c157600080fd5b506101e66125d6565b3480156103d657600080fd5b506101646103e536600461327f565b6125dd565b3480156103f657600080fd5b506101646104053660046133dd565b61268c565b34801561041657600080fd5b50610294612b8e565b6002606554141561044b5760405162461bcd60e51b815260040161044290613ae0565b60405180910390fd5b6002606555610458613204565b60008281526098602090815260409182902082516101808101845281546001600160a01b03908116825260018084015494830194909452600283015481169482019490945260038201548416606082015260048201546080820152600582015460a0820152600682015460c0820152600782015460e0820152600882015460ff808216151561010080850191909152820490951661012083015290939192610140850192600160a81b9092049091169081111561051157fe5b600181111561051c57fe5b815260089190910154600160b01b900460ff16151560209091015260c0810151909150620151800142116105625760405162461bcd60e51b815260040161044290613754565b6101208101516001600160a01b0316331461058f5760405162461bcd60e51b8152600401610442906137d4565b600081610140015160018111156105a257fe5b146105bf5760405162461bcd60e51b8152600401610442906137a1565b6000828152609b60209081526040808320338452825280832080549084905561012085018481528685526098845293829020855181546001600160a01b03199081166001600160a01b03928316178355948701516001838101919091559387015160028301805487169183169190911790556060870151600383018054909616908216179094556080860151600482015560a0860151600582015560c0860151600682015560e0860151600782015561010080870151600883018054975160ff1990981691151591909117610100600160a81b031916969095160294909417808455610140860151919486949093909160ff60a81b191690600160a81b9084908111156106c857fe5b0217905550610160919091015160089091018054911515600160b01b0260ff60b01b1990921691909117905560608201516001600160a01b031661073957604051339082156108fc029083906000818181858888f19350505050158015610733573d6000803e3d6000fd5b506107bf565b60975460405163a9059cbb60e01b81526001600160a01b039091169063a9059cbb9061076b9033908590600401613480565b602060405180830381600087803b15801561078557600080fd5b505af1158015610799573d6000803e3d6000fd5b505050506040513d601f19601f820116820180604052508101906107bd91906133c1565b505b7fcbba13897c2ac3f7fdb11e857b1a5a5c47f51e3fbeffa74d430f2b06177b45c0836040516107ee9190613b47565b60405180910390a15050600160655550565b600260655414156108235760405162461bcd60e51b815260040161044290613ae0565b60026065556001600160a01b0385166000908152609e6020526040902054859060ff166108625760405162461bcd60e51b8152600401610442906139ad565b6001600160a01b038716158061088557506097546001600160a01b038881169116145b6108a15760405162461bcd60e51b815260040161044290613b17565b620a8c0042018311156108c65760405162461bcd60e51b81526004016104429061364c565b6040516323b872dd60e01b81526001600160a01b038716906323b872dd906108f690339030908a9060040161345c565b600060405180830381600087803b15801561091057600080fd5b505af1158015610924573d6000803e3d6000fd5b50505050604051806101800160405280876001600160a01b03168152602001868152602001336001600160a01b03168152602001886001600160a01b031681526020018581526020016000815260200184815260200183815260200160001515815260200160006001600160a01b03168152602001600060018111156109a657fe5b815260006020918201819052609954815260988252604090819020835181546001600160a01b03199081166001600160a01b03928316178355938501516001808401919091559285015160028301805486169183169190911790556060850151600383018054909516908216179093556080840151600482015560a0840151600582015560c0840151600682015560e084015160078201556101008085015160088301805461012088015160ff1990911692151592909217610100600160a81b03191691909516909102178084556101408501519193919260ff60a81b1990911690600160a81b908490811115610a9957fe5b0217905550610160919091015160089091018054911515600160b01b0260ff60b01b199092169190911790556099546040517fdd11eaf2db1c16b640194c05b02faa4b8bc4abf29c61428e990e72c6c15cff7791610af691613b47565b60405180910390a150506099805460019081019091556065555050505050565b60026065541415610b395760405162461bcd60e51b815260040161044290613ae0565b600260655580610b47613204565b60008281526098602090815260409182902082516101808101845281546001600160a01b03908116825260018084015494830194909452600283015481169482019490945260038201548416606082015260048201546080820152600582015460a0820152600682015460c0820152600782015460e0820152600882015460ff808216151561010080850191909152820490951661012083015290939192610140850192600160a81b90920490911690811115610c0057fe5b6001811115610c0b57fe5b81526008919091015460ff600160b01b90910416151560209091015260408101519091506001600160a01b03163314610c565760405162461bcd60e51b81526004016104429061357d565b610c5e613204565b60008481526098602090815260409182902082516101808101845281546001600160a01b03908116825260018084015494830194909452600283015481169482019490945260038201548416606082015260048201546080820152600582015460a0820152600682015460c0820152600782015460e0820152600882015460ff808216151561010080850191909152820490951661012083015290939192610140850192600160a81b90920490911690811115610d1757fe5b6001811115610d2257fe5b815260089190910154600160b01b900460ff16151560209091015261010081015190915015610d635760405162461bcd60e51b815260040161044290613615565b8060c001514211610d865760405162461bcd60e51b815260040161044290613a65565b60008161014001516001811115610d9957fe5b14610db65760405162461bcd60e51b815260040161044290613aa9565b80516101208201516020808401516000888152609b835260408082206001600160a01b0380871684529452908190205460016101008801528187015191516323b872dd60e01b815292939092908616916323b872dd91610e1c913091879060040161345c565b600060405180830381600087803b158015610e3657600080fd5b505af1158015610e4a573d6000803e3d6000fd5b5050505060608501516001600160a01b0316610ea3578015610e9e576040516001600160a01b0384169082156108fc029083906000818181858888f19350505050158015610e9c573d6000803e3d6000fd5b505b610f2f565b8015610f2f5760975460405163a9059cbb60e01b81526001600160a01b039091169063a9059cbb90610edb9086908590600401613480565b602060405180830381600087803b158015610ef557600080fd5b505af1158015610f09573d6000803e3d6000fd5b505050506040513d601f19601f82011682018060405250810190610f2d91906133c1565b505b6000888152609b60209081526040808320610120890180516001600160a01b0390811686529184528285208590558481528c85526098845293829020895181549083166001600160a01b0319918216178255938a0151600180830191909155928a015160028201805491841691861691909117905560608a015160038201805491841691909516179093556080890151600484015560a0890151600584015560c0890151600684015560e08901516007840155610100808a01516008850180549651909316909102610100600160a81b031991151560ff1990961695909517169390931780845561014089015189949092909160ff60a81b191690600160a81b90849081111561103b57fe5b0217905550610160919091015160089091018054911515600160b01b0260ff60b01b199092169190911790556040517f6ebc92daad9a595afde1082ecccf13b6f1961090718d46cc49b17b33a739300190611099908a908690613b50565b60405180910390a150506001606555505050505050565b600260655414156110d35760405162461bcd60e51b815260040161044290613ae0565b60026065556110e0613204565b60008281526098602090815260409182902082516101808101845281546001600160a01b03908116825260018084015494830194909452600283015481169482019490945260038201548416606082015260048201546080820152600582015460a0820152600682015460c0820152600782015460e0820152600882015460ff808216151561010080850191909152820490951661012083015290939192610140850192600160a81b9092049091169081111561119957fe5b60018111156111a457fe5b815260089190910154600160b01b900460ff161515602091820152610120820151825191830151929350916001600160a01b03831633146111f75760405162461bcd60e51b8152600401610442906137d4565b8360c00151421161121a5760405162461bcd60e51b81526004016104429061367d565b8361010001511561123d5760405162461bcd60e51b815260040161044290613846565b6001846101400151600181111561125057fe5b1461126d5760405162461bcd60e51b8152600401610442906135ac565b60a08401516000868152609b602090815260408083206101208901516001600160a01b0316845290915290205410156112b85760405162461bcd60e51b815260040161044290613801565b600161010085018190526101608501526040516323b872dd60e01b81526001600160a01b038316906323b872dd906112f89030908790869060040161345c565b600060405180830381600087803b15801561131257600080fd5b505af1158015611326573d6000803e3d6000fd5b505050506113348486612b9d565b6000858152609b60209081526040808320338452825280832080546001600160a01b03878116808752609c865284872088885286528487209290925560608a018051928752609d8652848720888852865284872080546001600160a01b031990811694841694909417905583548c8852609f8752858820559286905560988552948390208951815483169087161781559389015160018581019190915592890151600285018054831691871691909117905590516003840180549092169085161790556080870151600483015560a0870151600583015560c0870151600683015560e08701516007830155610100808801516008840180546101208b015160ff1990911692151592909217610100600160a81b031916919095169091021780845561014088015188949092909160ff60a81b191690600160a81b90849081111561147a57fe5b0217905550610160919091015160089091018054911515600160b01b0260ff60b01b199092169190911790556001600160a01b0382166000908152609c60209081526040808320848452909152908190205460608601516101208701519251600080516020613bd1833981519152936114f9938a939092909190613b86565b60405180910390a150506001606555505050565b609c60209081526000928352604080842090915290825290205481565b609e6020526000908152604090205460ff1681565b6098602052600090815260409020805460018201546002830154600384015460048501546005860154600687015460078801546008909801546001600160a01b0397881698969795861696948616959394929391929160ff80831692610100810490921691600160a81b8104821691600160b01b909104168c565b600260655414156115dd5760405162461bcd60e51b815260040161044290613ae0565b60026065556115ea613204565b60008381526098602090815260409182902082516101808101845281546001600160a01b03908116825260018084015494830194909452600283015481169482019490945260038201548416606082015260048201546080820152600582015460a0820152600682015460c0820152600782015460e0820152600882015460ff808216151561010080850191909152820490951661012083015290939192610140850192600160a81b909204909116908111156116a357fe5b60018111156116ae57fe5b815260089190910154600160b01b900460ff1615156020918201526101208201518251838301516000888152609b85526040808220338352909552938420549495509193909290611700908790612dc2565b9050846101000151156117255760405162461bcd60e51b8152600401610442906135e3565b8460c0015142106117485760405162461bcd60e51b815260040161044290613729565b60608501516001600160a01b031615611762576000611764565b855b34146117825760405162461bcd60e51b815260040161044290613a21565b60e08501516000888152609b602090815260408083206001600160a01b03891684529091529020546117b391612dc2565b8110156117d25760405162461bcd60e51b8152600401610442906139de565b60608501516001600160a01b031615611874576097546040516323b872dd60e01b81526001600160a01b03909116906323b872dd9061181990339030908b9060040161345c565b602060405180830381600087803b15801561183357600080fd5b505af1158015611847573d6000803e3d6000fd5b505050506040513d601f19601f8201168201806040525081019061186b91906133c1565b61187457600080fd5b6000856101400151600181111561188757fe5b1415611c805784608001518110611ae657600161010086018190523361012087018190526101608701919091526000888152609b6020908152604080832084845290915290819020839055516323b872dd60e01b81526001600160a01b038516916323b872dd916118fe913091879060040161345c565b600060405180830381600087803b15801561191857600080fd5b505af115801561192c573d6000803e3d6000fd5b5050505061193a8588612b9d565b6001600160a01b038381166000818152609c6020908152604080832087845282528083208690558b8352609f825280832086905560608a018051948452609d8352818420888552835281842080546001600160a01b03199081169688169690961790558c8452609b835281842033855283528184208490558c845260988352928190208a5181548616908716178155918a0151600183810191909155908a015160028301805486169187169190911790559151600382018054909416908516179092556080880151600483015560a0880151600583015560c0880151600683015560e08801516007830155610100808901516008840180546101208c015160ff1990911692151592909217610100600160a81b031916919095169091021780845561014089015189949092909160ff60a81b191690600160a81b908490811115611a8057fe5b0217905550610160919091015160089091018054911515600160b01b0260ff60b01b199092169190911790556060850151610120860151604051600080516020613bd183398151915292611ad9928b9286929190613b86565b60405180910390a1611c7b565b6000878152609b60209081526040808320338452909152902054611b0b908790612dc2565b6000888152609b60209081526040808320338085529083528184209490945561012089019384528a83526098825291829020885181546001600160a01b03199081166001600160a01b03928316178355928a0151600180840191909155938a0151600283018054851691831691909117905560608a0151600383018054909416908216179092556080890151600482015560a0890151600582015560c0890151600682015560e08901516007820155610100808a0151600883018054965160ff1990971691151591909117610100600160a81b03191695909316029390931780825561014089015189949390929160ff60a81b191690600160a81b908490811115611c1257fe5b0217905550610160919091015160089091018054911515600160b01b0260ff60b01b199092169190911790556040517ffd7cfbd219ff1e7365436fb2930a026fa6704a1e0bb39ad104f0485c8c01124d90611c7290899089903390613b67565b60405180910390a15b611e39565b8460a00151811015611ca45760405162461bcd60e51b815260040161044290613976565b6000878152609b60209081526040808320338452909152902054611cc9908790612dc2565b6000888152609b60209081526040808320338085529083528184209490945561012089019384528a83526098825291829020885181546001600160a01b03199081166001600160a01b03928316178355928a0151600180840191909155938a0151600283018054851691831691909117905560608a0151600383018054909416908216179092556080890151600482015560a0890151600582015560c0890151600682015560e08901516007820155610100808a0151600883018054965160ff1990971691151591909117610100600160a81b03191695909316029390931780825561014089015189949390929160ff60a81b191690600160a81b908490811115611dd057fe5b0217905550610160919091015160089091018054911515600160b01b0260ff60b01b199092169190911790556040517ffd7cfbd219ff1e7365436fb2930a026fa6704a1e0bb39ad104f0485c8c01124d90611e3090899089903390613b67565b60405180910390a15b505060016065555050505050565b609a602052600090815260409020546001600160a01b031681565b60026065541415611e855760405162461bcd60e51b815260040161044290613ae0565b60026065556001600160a01b0386166000908152609e6020526040902054869060ff16611ec45760405162461bcd60e51b8152600401610442906139ad565b6001600160a01b0388161580611ee757506097546001600160a01b038981169116145b611f035760405162461bcd60e51b815260040161044290613b17565b620a8c004201831115611f285760405162461bcd60e51b81526004016104429061364c565b6040516323b872dd60e01b81526001600160a01b038816906323b872dd90611f5890339030908b9060040161345c565b600060405180830381600087803b158015611f7257600080fd5b505af1158015611f86573d6000803e3d6000fd5b50505050604051806101800160405280886001600160a01b03168152602001878152602001336001600160a01b03168152602001896001600160a01b0316815260200185815260200185815260200184815260200183815260200160001515815260200160006001600160a01b0316815260200186600181111561200657fe5b815260006020918201819052609954815260988252604090819020835181546001600160a01b03199081166001600160a01b03928316178355938501516001808401919091559285015160028301805486169183169190911790556060850151600383018054909516908216179093556080840151600482015560a0840151600582015560c0840151600682015560e084015160078201556101008085015160088301805461012088015160ff1990911692151592909217610100600160a81b03191691909516909102178084556101408501519193919260ff60a81b1990911690600160a81b9084908111156120f957fe5b0217905550610160919091015160089091018054911515600160b01b0260ff60b01b199092169190911790556099546040517fdd11eaf2db1c16b640194c05b02faa4b8bc4abf29c61428e990e72c6c15cff779161215691613b47565b60405180910390a15050609980546001908101909155606555505050505050565b61217f612df0565b6001600160a01b0316612190612311565b6001600160a01b0316146121b65760405162461bcd60e51b815260040161044290613941565b6001600160a01b03919091166000908152609e60205260409020805460ff1916911515919091179055565b6121e9612df0565b6001600160a01b03166121fa612311565b6001600160a01b0316146122205760405162461bcd60e51b815260040161044290613941565b6033546040516000916001600160a01b031690600080516020613bf1833981519152908390a3603380546001600160a01b0319169055565b600054610100900460ff16806122715750612271612df4565b8061227f575060005460ff16155b61229b5760405162461bcd60e51b81526004016104429061387b565b600054610100900460ff161580156122c6576000805460ff1961ff0019909116610100171660011790555b6122ce612e05565b6122d6612e97565b609780546001600160a01b03191673dd97ab35e3c0820215bc85a395e13671d84ccba2179055801561230e576000805461ff00191690555b50565b6033546001600160a01b031690565b600260655414156123435760405162461bcd60e51b815260040161044290613ae0565b6002606555612350613204565b60008281526098602090815260409182902082516101808101845281546001600160a01b03908116825260018084015494830194909452600283015481169482019490945260038201548416606082015260048201546080820152600582015460a0820152600682015460c0820152600782015460e0820152600882015460ff808216151561010080850191909152820490951661012083015290939192610140850192600160a81b9092049091169081111561240957fe5b600181111561241457fe5b815260089190910154600160b01b900460ff1615156020909101526101208101519091506001600160a01b03811633141561244e57600080fd5b6000838152609b602090815260408083203384529091528120805491905560608301516001600160a01b03166124b157604051339082156108fc029083906000818181858888f193505050501580156124ab573d6000803e3d6000fd5b50612537565b60975460405163a9059cbb60e01b81526001600160a01b039091169063a9059cbb906124e39033908590600401613480565b602060405180830381600087803b1580156124fd57600080fd5b505af1158015612511573d6000803e3d6000fd5b505050506040513d601f19601f8201168201806040525081019061253591906133c1565b505b7fe1cb2f570d10844b5dc7b9f2d3deef8e3a7544b63f3d98223ac4a386dd1e46168433604051612568929190613b50565b60405180910390a1505060016065555050565b609f6020526000908152604090205481565b609b60209081526000928352604080842090915290825290205481565b60995481565b609d6020908152600092835260408084209091529082529020546001600160a01b031681565b620a8c0081565b6125e5612df0565b6001600160a01b03166125f6612311565b6001600160a01b03161461261c5760405162461bcd60e51b815260040161044290613941565b6001600160a01b0381166126425760405162461bcd60e51b8152600401610442906136ac565b6033546040516001600160a01b03808416921690600080516020613bf183398151915290600090a3603380546001600160a01b0319166001600160a01b0392909216919091179055565b80612695613204565b60008281526098602090815260409182902082516101808101845281546001600160a01b03908116825260018084015494830194909452600283015481169482019490945260038201548416606082015260048201546080820152600582015460a0820152600682015460c0820152600782015460e0820152600882015460ff808216151561010080850191909152820490951661012083015290939192610140850192600160a81b9092049091169081111561274e57fe5b600181111561275957fe5b81526008919091015460ff600160b01b90910416151560209091015260408101519091506001600160a01b031633146127a45760405162461bcd60e51b81526004016104429061357d565b600260655414156127c75760405162461bcd60e51b815260040161044290613ae0565b60026065556127d4613204565b60008481526098602090815260409182902082516101808101845281546001600160a01b03908116825260018084015494830194909452600283015481169482019490945260038201548416606082015260048201546080820152600582015460a0820152600682015460c0820152600782015460e0820152600882015460ff808216151561010080850191909152820490951661012083015290939192610140850192600160a81b9092049091169081111561288d57fe5b600181111561289857fe5b815260089190910154600160b01b900460ff161515602090910152610100810151909150156128d95760405162461bcd60e51b815260040161044290613615565b6101208101516001600160a01b03166129045760405162461bcd60e51b8152600401610442906138c9565b80516020820151600161010084018190526101608401526101208301516040516323b872dd60e01b81526001600160a01b038416916323b872dd9161294f913091869060040161345c565b600060405180830381600087803b15801561296957600080fd5b505af115801561297d573d6000803e3d6000fd5b5050505061298b8387612b9d565b6000868152609b60208181526040808420610120880180516001600160a01b03908116875282855283872054898216808952609c87528589208a8a5287528589209190915560608b018051918952609d87528589208a8a52875285892080546001600160a01b03199081169385169390931790558e8952878752835183168952848752858920548f8a52609f8852868a20559686528251821688529285528387208790558c875260988552958390208951815484169088161781559389015160018581019190915592890151600285018054841691881691909117905593516003840180549092169086161790556080870151600483015560a0870151600583015560c0870151600683015560e0870151600783015561010080880151600884018054955160ff1990961691151591909117610100600160a81b0319169490951602929092178084556101408701518794929390929160ff60a81b191690600160a81b908490811115612afa57fe5b0217905550610160919091015160089091018054911515600160b01b0260ff60b01b199092169190911790556001600160a01b0382166000908152609c60209081526040808320848452909152908190205460608501516101208601519251600080516020613bd183398151915293612b79938b939092909190613b86565b60405180910390a15050600160655550505050565b6097546001600160a01b031681565b6101208201516000828152609b602090815260408083206001600160a01b0385168452909152812054612bde90606490612bd8906005612f0d565b90612f47565b6000848152609b602090815260408083206001600160a01b038716845290915281205491925090612c0f9083612f89565b60608601519091506001600160a01b0316612ca85784604001516001600160a01b03166108fc829081150290604051600060405180830381858888f19350505050158015612c61573d6000803e3d6000fd5b50612c6a612311565b6001600160a01b03166108fc839081150290604051600060405180830381858888f19350505050158015612ca2573d6000803e3d6000fd5b50612dbb565b609754604080870151905163a9059cbb60e01b81526001600160a01b039092169163a9059cbb91612cdd918590600401613480565b602060405180830381600087803b158015612cf757600080fd5b505af1158015612d0b573d6000803e3d6000fd5b505050506040513d601f19601f82011682018060405250810190612d2f91906133c1565b506097546001600160a01b031663a9059cbb612d49612311565b846040518363ffffffff1660e01b8152600401612d67929190613480565b602060405180830381600087803b158015612d8157600080fd5b505af1158015612d95573d6000803e3d6000fd5b505050506040513d601f19601f82011682018060405250810190612db991906133c1565b505b5050505050565b600082820183811015612de75760405162461bcd60e51b8152600401610442906136f2565b90505b92915050565b3390565b6000612dff30612fcb565b15905090565b600054610100900460ff1680612e1e5750612e1e612df4565b80612e2c575060005460ff16155b612e485760405162461bcd60e51b81526004016104429061387b565b600054610100900460ff16158015612e73576000805460ff1961ff0019909116610100171660011790555b612e7b612fd1565b612e83613052565b801561230e576000805461ff001916905550565b600054610100900460ff1680612eb05750612eb0612df4565b80612ebe575060005460ff16155b612eda5760405162461bcd60e51b81526004016104429061387b565b600054610100900460ff16158015612f05576000805460ff1961ff0019909116610100171660011790555b612e8361311a565b600082612f1c57506000612dea565b82820282848281612f2957fe5b0414612de75760405162461bcd60e51b815260040161044290613900565b6000612de783836040518060400160405280601a81526020017f536166654d6174683a206469766973696f6e206279207a65726f0000000000008152506131a1565b6000612de783836040518060400160405280601e81526020017f536166654d6174683a207375627472616374696f6e206f766572666c6f7700008152506131d8565b3b151590565b600054610100900460ff1680612fea5750612fea612df4565b80612ff8575060005460ff16155b6130145760405162461bcd60e51b81526004016104429061387b565b600054610100900460ff16158015612e83576000805460ff1961ff001990911661010017166001179055801561230e576000805461ff001916905550565b600054610100900460ff168061306b575061306b612df4565b80613079575060005460ff16155b6130955760405162461bcd60e51b81526004016104429061387b565b600054610100900460ff161580156130c0576000805460ff1961ff0019909116610100171660011790555b60006130ca612df0565b603380546001600160a01b0319166001600160a01b03831690811790915560405191925090600090600080516020613bf1833981519152908290a350801561230e576000805461ff001916905550565b600054610100900460ff16806131335750613133612df4565b80613141575060005460ff16155b61315d5760405162461bcd60e51b81526004016104429061387b565b600054610100900460ff16158015613188576000805460ff1961ff0019909116610100171660011790555b6001606555801561230e576000805461ff001916905550565b600081836131c25760405162461bcd60e51b8152600401610442919061352a565b5060008385816131ce57fe5b0495945050505050565b600081848411156131fc5760405162461bcd60e51b8152600401610442919061352a565b505050900390565b6040805161018081018252600080825260208201819052918101829052606081018290526080810182905260a0810182905260c0810182905260e0810182905261010081018290526101208101829052906101408201908152600060209091015290565b80356001600160a01b0381168114612dea57600080fd5b600060208284031215613290578081fd5b612de78383613268565b600080600080600080600060e0888a0312156132b4578283fd5b87356132bf81613bad565b965060208801356132cf81613bad565b9550604088013594506060880135600281106132e9578384fd5b9699959850939660808101359560a0820135955060c0909101359350915050565b60008060008060008060c08789031215613322578182fd5b61332c8888613268565b955061333b8860208901613268565b95989597505050506040840135936060810135936080820135935060a0909101359150565b60008060408385031215613372578182fd5b61337c8484613268565b9150602083013561338c81613bc2565b809150509250929050565b600080604083850312156133a9578182fd5b6133b38484613268565b946020939093013593505050565b6000602082840312156133d2578081fd5b8151612de781613bc2565b6000602082840312156133ee578081fd5b5035919050565b60008060408385031215613407578182fd5b823591506134188460208501613268565b90509250929050565b60008060408385031215613433578182fd5b50508035926020909101359150565b15159052565b6001600160a01b0391909116815260200190565b6001600160a01b039384168152919092166020820152604081019190915260600190565b6001600160a01b03929092168252602082015260400190565b6001600160a01b038d81168252602082018d90528b811660408301528a81166060830152608082018a905260a0820189905260c0820188905260e0820187905285151561010083015284166101208201526101808101600284106134f957fe5b8361014083015261350e610160830184613442565b9d9c50505050505050505050505050565b901515815260200190565b6000602080835283518082850152825b818110156135565785810183015185820160400152820161353a565b818111156135675783604083870101525b50601f01601f1916929092016040019392505050565b60208082526015908201527426bab9ba1031329030bab1ba34b7b71037bbb732b960591b604082015260600190565b6020808252601f908201527f61756374696f6e206d757374206265206f662072657365727665207479706500604082015260600190565b602080825260189082015277185d58dd1a5bdb881a185cc81899595b881cd95d1d1b195960421b604082015260600190565b6020808252601a908201527f61756374696f6e20697320736574746c656420616c7265616479000000000000604082015260600190565b602080825260179082015276657863656564206d61782061756374696f6e2074696d6560481b604082015260600190565b602080825260159082015274185d58dd1a5bdb881a185cc81b9bdd08195b991959605a1b604082015260600190565b60208082526026908201527f4f776e61626c653a206e6577206f776e657220697320746865207a65726f206160408201526564647265737360d01b606082015260800190565b6020808252601b908201527f536166654d6174683a206164646974696f6e206f766572666c6f770000000000604082015260600190565b602080825260119082015270185d58dd1a5bdb881a185cc8195b991959607a1b604082015260600190565b6020808252602d908201527f6f6e6c7920616c6c6f77656420323420686f757273206166746572206175637460408201526c1a5bdb881a185cc8195b991959609a1b606082015260800190565b60208082526019908201527837b7363c903a30b933b2ba10383934b1b29030bab1ba34b7b760391b604082015260600190565b60208082526013908201527237b7363c903434b3b432b9ba103134b23232b960691b604082015260600190565b60208082526025908201527f6d7573742062696420657175616c206f7220686967686572207468616e207265604082015264736572766560d81b606082015260800190565b6020808252818101527f61756374696f6e2068617320616c7265616479206265656e20736574746c6564604082015260600190565b6020808252602e908201527f496e697469616c697a61626c653a20636f6e747261637420697320616c72656160408201526d191e481a5b9a5d1a585b1a5e995960921b606082015260800190565b6020808252601b908201527f6e65656420746f20686176652068696768657374206269646465720000000000604082015260600190565b60208082526021908201527f536166654d6174683a206d756c7469706c69636174696f6e206f766572666c6f6040820152607760f81b606082015260800190565b6020808252818101527f4f776e61626c653a2063616c6c6572206973206e6f7420746865206f776e6572604082015260600190565b6020808252601c908201527f6d7573742062696420686967686572207468616e207265736572766500000000604082015260600190565b602080825260179082015276135d5cdd081899481dda1a5d195b1a5cdd1959081b999d604a1b604082015260600190565b60208082526023908201527f6d7573742062696420686967686572207468616e2068696768657374206269646040820152623232b960e91b606082015260800190565b60208082526024908201527f737065636966696564207472616e7366657220616d6f756e74206d757374206d6040820152630c2e8c6d60e31b606082015260800190565b60208082526024908201527f6f6e6c7920616c6c6f7765642061667465722061756374696f6e2068617320656040820152631b99195960e21b606082015260800190565b6020808252601e908201527f63616e206f6e6c7920636c6f7365207461726765742061756374696f6e730000604082015260600190565b6020808252601f908201527f5265656e7472616e637947756172643a207265656e7472616e742063616c6c00604082015260600190565b6020808252601690820152753ab730b13632903a379030b1b1b2b83a103a37b5b2b760511b604082015260600190565b90815260200190565b9182526001600160a01b0316602082015260400190565b92835260208301919091526001600160a01b0316604082015260600190565b93845260208401929092526001600160a01b03908116604084015216606082015260800190565b6001600160a01b038116811461230e57600080fd5b801515811461230e57600080fdfe55390ad3bffeff90968b8c54d2ed0099a7dbd2d71bc56263a1abf5643f833fec8be0079c531659141344cd1fd0a4f28419497f9722a3daafe3b4186f6b6457e0a2646970667358221220427968b0ea69fd63aea9683224ad4ed21ad8b001f57dd672d22b09f2b0e6435964736f6c634300060c0033",
  "linkReferences": {},
  "deployedLinkReferences": {}
}