{
  "_format": "hh-sol-artifact-1",
  "contractName": "NFTMarketplace",
  "sourceName": "contracts/nft/NFTMarketplace.sol",
  "abi": [
    {
      "anonymous": false,
      "inputs": [
        {
          "indexed": false,
          "internalType": "uint256",
          "name": "auctionId",
          "type": "uint256"
        },
        {
          "indexed": false,
          "internalType": "uint256",
          "name": "amount",
          "type": "uint256"
        },
        {
          "indexed": false,
          "internalType": "address",
          "name": "highestBidder",
          "type": "address"
        }
      ],
      "name": "Bid",
      "type": "event"
    },
    {
      "anonymous": false,
      "inputs": [
        {
          "indexed": false,
          "internalType": "uint256",
          "name": "auctionId",
          "type": "uint256"
        },
        {
          "indexed": false,
          "internalType": "address",
          "name": "highestBidder",
          "type": "address"
        }
      ],
      "name": "CloseAuction",
      "type": "event"
    },
    {
      "anonymous": false,
      "inputs": [
        {
          "indexed": false,
          "internalType": "uint256",
          "name": "auctionId",
          "type": "uint256"
        }
      ],
      "name": "EmergencyWithdrawal",
      "type": "event"
    },
    {
      "anonymous": false,
      "inputs": [
        {
          "indexed": false,
          "internalType": "uint256",
          "name": "auctionId",
          "type": "uint256"
        }
      ],
      "name": "List",
      "type": "event"
    },
    {
      "anonymous": false,
      "inputs": [
        {
          "indexed": true,
          "internalType": "address",
          "name": "previousOwner",
          "type": "address"
        },
        {
          "indexed": true,
          "internalType": "address",
          "name": "newOwner",
          "type": "address"
        }
      ],
      "name": "OwnershipTransferred",
      "type": "event"
    },
    {
      "anonymous": false,
      "inputs": [
        {
          "indexed": false,
          "internalType": "uint256",
          "name": "auctionId",
          "type": "uint256"
        },
        {
          "indexed": false,
          "internalType": "uint256",
          "name": "salesPrice",
          "type": "uint256"
        },
        {
          "indexed": false,
          "internalType": "address",
          "name": "token",
          "type": "address"
        },
        {
          "indexed": false,
          "internalType": "address",
          "name": "highestBidder",
          "type": "address"
        }
      ],
      "name": "Sold",
      "type": "event"
    },
    {
      "anonymous": false,
      "inputs": [
        {
          "indexed": false,
          "internalType": "uint256",
          "name": "auctionId",
          "type": "uint256"
        },
        {
          "indexed": false,
          "internalType": "address",
          "name": "account",
          "type": "address"
        }
      ],
      "name": "WithdrawAll",
      "type": "event"
    },
    {
      "inputs": [],
      "name": "MAX_AUCTION_TIME",
      "outputs": [
        {
          "internalType": "uint256",
          "name": "",
          "type": "uint256"
        }
      ],
      "stateMutability": "view",
      "type": "function"
    },
    {
      "inputs": [
        {
          "internalType": "uint256",
          "name": "",
          "type": "uint256"
        }
      ],
      "name": "auctionOwner",
      "outputs": [
        {
          "internalType": "address",
          "name": "",
          "type": "address"
        }
      ],
      "stateMutability": "view",
      "type": "function"
    },
    {
      "inputs": [
        {
          "internalType": "uint256",
          "name": "",
          "type": "uint256"
        }
      ],
      "name": "auctions",
      "outputs": [
        {
          "internalType": "address",
          "name": "nftToken",
          "type": "address"
        },
        {
          "internalType": "uint256",
          "name": "nftTokenId",
          "type": "uint256"
        },
        {
          "internalType": "address payable",
          "name": "owner",
          "type": "address"
        },
        {
          "internalType": "address",
          "name": "token",
          "type": "address"
        },
        {
          "internalType": "uint256",
          "name": "targetPrice",
          "type": "uint256"
        },
        {
          "internalType": "uint256",
          "name": "reservePrice",
          "type": "uint256"
        },
        {
          "internalType": "uint256",
          "name": "endTime",
          "type": "uint256"
        },
        {
          "internalType": "uint256",
          "name": "minIncrement",
          "type": "uint256"
        },
        {
          "internalType": "bool",
          "name": "isSettled",
          "type": "bool"
        },
        {
          "internalType": "address payable",
          "name": "highestBidder",
          "type": "address"
        },
        {
          "internalType": "enum NFTMarketplace.AuctionType",
          "name": "auctionType",
          "type": "uint8"
        },
        {
          "internalType": "bool",
          "name": "isSold",
          "type": "bool"
        }
      ],
      "stateMutability": "view",
      "type": "function"
    },
    {
      "inputs": [],
      "name": "auctionsLength",
      "outputs": [
        {
          "internalType": "uint256",
          "name": "",
          "type": "uint256"
        }
      ],
      "stateMutability": "view",
      "type": "function"
    },
    {
      "inputs": [
        {
          "internalType": "uint256",
          "name": "auctionId",
          "type": "uint256"
        },
        {
          "internalType": "uint256",
          "name": "amount",
          "type": "uint256"
        }
      ],
      "name": "bid",
      "outputs": [],
      "stateMutability": "payable",
      "type": "function"
    },
    {
      "inputs": [
        {
          "internalType": "uint256",
          "name": "",
          "type": "uint256"
        },
        {
          "internalType": "address",
          "name": "",
          "type": "address"
        }
      ],
      "name": "bidBalance",
      "outputs": [
        {
          "internalType": "uint256",
          "name": "",
          "type": "uint256"
        }
      ],
      "stateMutability": "view",
      "type": "function"
    },
    {
      "inputs": [
        {
          "internalType": "uint256",
          "name": "auctionId",
          "type": "uint256"
        }
      ],
      "name": "claim",
      "outputs": [],
      "stateMutability": "nonpayable",
      "type": "function"
    },
    {
      "inputs": [
        {
          "internalType": "uint256",
          "name": "auctionId",
          "type": "uint256"
        }
      ],
      "name": "closeAuction",
      "outputs": [],
      "stateMutability": "nonpayable",
      "type": "function"
    },
    {
      "inputs": [
        {
          "internalType": "address",
          "name": "_token",
          "type": "address"
        },
        {
          "internalType": "address",
          "name": "_nftToken",
          "type": "address"
        },
        {
          "internalType": "uint256",
          "name": "_nftTokenId",
          "type": "uint256"
        },
        {
          "internalType": "uint256",
          "name": "_targetPrice",
          "type": "uint256"
        },
        {
          "internalType": "uint256",
          "name": "_endTime",
          "type": "uint256"
        },
        {
          "internalType": "uint256",
          "name": "_increment",
          "type": "uint256"
        }
      ],
      "name": "createAuction",
      "outputs": [],
      "stateMutability": "nonpayable",
      "type": "function"
    },
    {
      "inputs": [
        {
          "internalType": "address",
          "name": "_token",
          "type": "address"
        },
        {
          "internalType": "address",
          "name": "_nftToken",
          "type": "address"
        },
        {
          "internalType": "uint256",
          "name": "_nftTokenId",
          "type": "uint256"
        },
        {
          "internalType": "enum NFTMarketplace.AuctionType",
          "name": "_auctionType",
          "type": "uint8"
        },
        {
          "internalType": "uint256",
          "name": "_price",
          "type": "uint256"
        },
        {
          "internalType": "uint256",
          "name": "_endTime",
          "type": "uint256"
        },
        {
          "internalType": "uint256",
          "name": "_increment",
          "type": "uint256"
        }
      ],
      "name": "createAuctionV2",
      "outputs": [],
      "stateMutability": "nonpayable",
      "type": "function"
    },
    {
      "inputs": [
        {
          "internalType": "uint256",
          "name": "auctionId",
          "type": "uint256"
        }
      ],
      "name": "emergencyWithdrawal",
      "outputs": [],
      "stateMutability": "nonpayable",
      "type": "function"
    },
    {
      "inputs": [
        {
          "internalType": "uint256",
          "name": "",
          "type": "uint256"
        }
      ],
      "name": "finalHighestBid",
      "outputs": [
        {
          "internalType": "uint256",
          "name": "",
          "type": "uint256"
        }
      ],
      "stateMutability": "view",
      "type": "function"
    },
    {
      "inputs": [
        {
          "internalType": "address",
          "name": "user",
          "type": "address"
        },
        {
          "internalType": "uint256",
          "name": "cursor",
          "type": "uint256"
        },
        {
          "internalType": "uint256",
          "name": "size",
          "type": "uint256"
        }
      ],
      "name": "getUserBids",
      "outputs": [
        {
          "internalType": "uint256[]",
          "name": "",
          "type": "uint256[]"
        },
        {
          "internalType": "uint256[]",
          "name": "",
          "type": "uint256[]"
        },
        {
          "internalType": "uint256",
          "name": "",
          "type": "uint256"
        }
      ],
      "stateMutability": "view",
      "type": "function"
    },
    {
      "inputs": [
        {
          "internalType": "address",
          "name": "user",
          "type": "address"
        }
      ],
      "name": "getUserBidsLength",
      "outputs": [
        {
          "internalType": "uint256",
          "name": "",
          "type": "uint256"
        }
      ],
      "stateMutability": "view",
      "type": "function"
    },
    {
      "inputs": [],
      "name": "initialize",
      "outputs": [],
      "stateMutability": "nonpayable",
      "type": "function"
    },
    {
      "inputs": [
        {
          "internalType": "address",
          "name": "",
          "type": "address"
        },
        {
          "internalType": "uint256",
          "name": "",
          "type": "uint256"
        }
      ],
      "name": "lastPrice",
      "outputs": [
        {
          "internalType": "uint256",
          "name": "",
          "type": "uint256"
        }
      ],
      "stateMutability": "view",
      "type": "function"
    },
    {
      "inputs": [
        {
          "internalType": "address",
          "name": "",
          "type": "address"
        },
        {
          "internalType": "uint256",
          "name": "",
          "type": "uint256"
        }
      ],
      "name": "lastToken",
      "outputs": [
        {
          "internalType": "address",
          "name": "",
          "type": "address"
        }
      ],
      "stateMutability": "view",
      "type": "function"
    },
    {
      "inputs": [],
      "name": "owner",
      "outputs": [
        {
          "internalType": "address",
          "name": "",
          "type": "address"
        }
      ],
      "stateMutability": "view",
      "type": "function"
    },
    {
      "inputs": [
        {
          "internalType": "uint256",
          "name": "auctionId",
          "type": "uint256"
        }
      ],
      "name": "pickWinner",
      "outputs": [],
      "stateMutability": "nonpayable",
      "type": "function"
    },
    {
      "inputs": [],
      "name": "renounceOwnership",
      "outputs": [],
      "stateMutability": "nonpayable",
      "type": "function"
    },
    {
      "inputs": [
        {
          "internalType": "address",
          "name": "_token",
          "type": "address"
        },
        {
          "internalType": "bool",
          "name": "_active",
          "type": "bool"
        }
      ],
      "name": "setWhitelistedNFT",
      "outputs": [],
      "stateMutability": "nonpayable",
      "type": "function"
    },
    {
      "inputs": [],
      "name": "token",
      "outputs": [
        {
          "internalType": "contract IBEP20",
          "name": "",
          "type": "address"
        }
      ],
      "stateMutability": "view",
      "type": "function"
    },
    {
      "inputs": [
        {
          "internalType": "address",
          "name": "newOwner",
          "type": "address"
        }
      ],
      "name": "transferOwnership",
      "outputs": [],
      "stateMutability": "nonpayable",
      "type": "function"
    },
    {
      "inputs": [
        {
          "internalType": "address",
          "name": "",
          "type": "address"
        },
        {
          "internalType": "uint256",
          "name": "",
          "type": "uint256"
        }
      ],
      "name": "userBids",
      "outputs": [
        {
          "internalType": "uint256",
          "name": "",
          "type": "uint256"
        }
      ],
      "stateMutability": "view",
      "type": "function"
    },
    {
      "inputs": [
        {
          "internalType": "address",
          "name": "",
          "type": "address"
        }
      ],
      "name": "whitelistedNFT",
      "outputs": [
        {
          "internalType": "bool",
          "name": "",
          "type": "bool"
        }
      ],
      "stateMutability": "view",
      "type": "function"
    },
    {
      "inputs": [
        {
          "internalType": "uint256",
          "name": "auctionId",
          "type": "uint256"
        }
      ],
      "name": "withdrawAll",
      "outputs": [],
      "stateMutability": "nonpayable",
      "type": "function"
    }
  ],
  "bytecode": "0x608060405234801561001057600080fd5b50613fa4806100206000396000f3fe6080604052600436106101605760003560e01c80638129fc1c116100c1578063b78fd5b31161007a578063b78fd5b3146103e1578063d3cc6eb214610410578063ebd9298914610425578063edae3ccb14610445578063f2fde38b1461045a578063f737d21d1461047a578063fc0c546a1461049a57610160565b80638129fc1c146103375780638da5cb5b1461034c578063958e2d311461036157806396ec50c3146103815780639b3e216b146103a1578063a941e2f2146103c157610160565b8063571a26a01161011e578063571a26a01461024a578063598647f8146102825780635b5dacf1146102955780635ceb3c12146102c25780635dcfefce146102e25780636109f2b914610302578063715018a61461032257610160565b806239522c1461016557806312b3d2c114610187578063236ed8f3146101a7578063379607f5146101c75780633ea273bf146101e757806355c832d41461021d575b600080fd5b34801561017157600080fd5b506101856101803660046136cb565b6104af565b005b34801561019357600080fd5b506101856101a23660046135c5565b610890565b3480156101b357600080fd5b506101856101c23660046136cb565b610ba6565b3480156101d357600080fd5b506101856101e23660046136cb565b611140565b3480156101f357600080fd5b50610207610202366004613652565b61159d565b6040516102149190613ea5565b60405180910390f35b34801561022957600080fd5b5061023d61023836600461353a565b6115ba565b604051610214919061387d565b34801561025657600080fd5b5061026a6102653660046136cb565b6115cf565b6040516102149c9b9a999897969594939291906137c1565b61018561029036600461370f565b61164a565b3480156102a157600080fd5b506102b56102b03660046136cb565b611f18565b6040516102149190613770565b3480156102ce57600080fd5b506101856102dd366004613555565b611f33565b3480156102ee57600080fd5b506102076102fd36600461353a565b612248565b34801561030e57600080fd5b5061018561031d36600461361b565b612263565b34801561032e57600080fd5b506101856122cd565b34801561034357600080fd5b50610185612344565b34801561035857600080fd5b506102b56123fd565b34801561036d57600080fd5b5061018561037c3660046136cb565b61240c565b34801561038d57600080fd5b5061020761039c366004613652565b612667565b3480156103ad57600080fd5b506102076103bc3660046136cb565b612695565b3480156103cd57600080fd5b506102076103dc3660046136e3565b6126a7565b3480156103ed57600080fd5b506104016103fc36600461367c565b6126c4565b60405161021493929190613847565b34801561041c57600080fd5b50610207612865565b34801561043157600080fd5b506102b5610440366004613652565b61286b565b34801561045157600080fd5b50610207612891565b34801561046657600080fd5b5061018561047536600461353a565b612898565b34801561048657600080fd5b506101856104953660046136cb565b612947565b3480156104a657600080fd5b506102b5612e49565b600260655414156104db5760405162461bcd60e51b81526004016104d290613e3e565b60405180910390fd5b60026065556104e86134bf565b60008281526098602090815260409182902082516101808101845281546001600160a01b03908116825260018084015494830194909452600283015481169482019490945260038201548416606082015260048201546080820152600582015460a0820152600682015460c0820152600782015460e0820152600882015460ff808216151561010080850191909152820490951661012083015290939192610140850192600160a81b909204909116908111156105a157fe5b60018111156105ac57fe5b815260089190910154600160b01b900460ff16151560209091015260c0810151909150620151800142116105f25760405162461bcd60e51b81526004016104d290613ab2565b6101208101516001600160a01b0316331461061f5760405162461bcd60e51b81526004016104d290613b32565b6000816101400151600181111561063257fe5b1461064f5760405162461bcd60e51b81526004016104d290613aff565b6000828152609b60209081526040808320338452825280832080549084905561012085018481528685526098845293829020855181546001600160a01b03199081166001600160a01b03928316178355948701516001838101919091559387015160028301805487169183169190911790556060870151600383018054909616908216179094556080860151600482015560a0860151600582015560c0860151600682015560e0860151600782015561010080870151600883018054975160ff1990981691151591909117610100600160a81b031916969095160294909417808455610140860151919486949093909160ff60a81b191690600160a81b90849081111561075857fe5b0217905550610160919091015160089091018054911515600160b01b0260ff60b01b1990921691909117905560608201516001600160a01b03166107c957604051339082156108fc029083906000818181858888f193505050501580156107c3573d6000803e3d6000fd5b5061084f565b60975460405163a9059cbb60e01b81526001600160a01b039091169063a9059cbb906107fb90339085906004016137a8565b602060405180830381600087803b15801561081557600080fd5b505af1158015610829573d6000803e3d6000fd5b505050506040513d601f19601f8201168201806040525081019061084d91906136af565b505b7fcbba13897c2ac3f7fdb11e857b1a5a5c47f51e3fbeffa74d430f2b06177b45c08360405161087e9190613ea5565b60405180910390a15050600160655550565b600260655414156108b35760405162461bcd60e51b81526004016104d290613e3e565b60026065556001600160a01b0385166000908152609e6020526040902054859060ff166108f25760405162461bcd60e51b81526004016104d290613d0b565b6001600160a01b038716158061091557506097546001600160a01b038881169116145b6109315760405162461bcd60e51b81526004016104d290613e75565b620a8c0042018311156109565760405162461bcd60e51b81526004016104d2906139aa565b6040516323b872dd60e01b81526001600160a01b038716906323b872dd9061098690339030908a90600401613784565b600060405180830381600087803b1580156109a057600080fd5b505af11580156109b4573d6000803e3d6000fd5b50505050604051806101800160405280876001600160a01b03168152602001868152602001336001600160a01b03168152602001886001600160a01b031681526020018581526020016000815260200184815260200183815260200160001515815260200160006001600160a01b0316815260200160006001811115610a3657fe5b815260006020918201819052609954815260988252604090819020835181546001600160a01b03199081166001600160a01b03928316178355938501516001808401919091559285015160028301805486169183169190911790556060850151600383018054909516908216179093556080840151600482015560a0840151600582015560c0840151600682015560e084015160078201556101008085015160088301805461012088015160ff1990911692151592909217610100600160a81b03191691909516909102178084556101408501519193919260ff60a81b1990911690600160a81b908490811115610b2957fe5b0217905550610160919091015160089091018054911515600160b01b0260ff60b01b199092169190911790556099546040517fdd11eaf2db1c16b640194c05b02faa4b8bc4abf29c61428e990e72c6c15cff7791610b8691613ea5565b60405180910390a150506099805460019081019091556065555050505050565b60026065541415610bc95760405162461bcd60e51b81526004016104d290613e3e565b600260655580610bd76134bf565b60008281526098602090815260409182902082516101808101845281546001600160a01b03908116825260018084015494830194909452600283015481169482019490945260038201548416606082015260048201546080820152600582015460a0820152600682015460c0820152600782015460e0820152600882015460ff808216151561010080850191909152820490951661012083015290939192610140850192600160a81b90920490911690811115610c9057fe5b6001811115610c9b57fe5b81526008919091015460ff600160b01b90910416151560209091015260408101519091506001600160a01b03163314610ce65760405162461bcd60e51b81526004016104d2906138db565b610cee6134bf565b60008481526098602090815260409182902082516101808101845281546001600160a01b03908116825260018084015494830194909452600283015481169482019490945260038201548416606082015260048201546080820152600582015460a0820152600682015460c0820152600782015460e0820152600882015460ff808216151561010080850191909152820490951661012083015290939192610140850192600160a81b90920490911690811115610da757fe5b6001811115610db257fe5b815260089190910154600160b01b900460ff16151560209091015261010081015190915015610df35760405162461bcd60e51b81526004016104d290613973565b8060c001514211610e165760405162461bcd60e51b81526004016104d290613dc3565b60008161014001516001811115610e2957fe5b14610e465760405162461bcd60e51b81526004016104d290613e07565b80516101208201516020808401516000888152609b835260408082206001600160a01b0380871684529452908190205460016101008801528187015191516323b872dd60e01b815292939092908616916323b872dd91610eac9130918790600401613784565b600060405180830381600087803b158015610ec657600080fd5b505af1158015610eda573d6000803e3d6000fd5b5050505060608501516001600160a01b0316610f33578015610f2e576040516001600160a01b0384169082156108fc029083906000818181858888f19350505050158015610f2c573d6000803e3d6000fd5b505b610fbf565b8015610fbf5760975460405163a9059cbb60e01b81526001600160a01b039091169063a9059cbb90610f6b90869085906004016137a8565b602060405180830381600087803b158015610f8557600080fd5b505af1158015610f99573d6000803e3d6000fd5b505050506040513d601f19601f82011682018060405250810190610fbd91906136af565b505b6000888152609b60209081526040808320610120890180516001600160a01b0390811686529184528285208590558481528c85526098845293829020895181549083166001600160a01b0319918216178255938a0151600180830191909155928a015160028201805491841691861691909117905560608a015160038201805491841691909516179093556080890151600484015560a0890151600584015560c0890151600684015560e08901516007840155610100808a01516008850180549651909316909102610100600160a81b031991151560ff1990961695909517169390931780845561014089015189949092909160ff60a81b191690600160a81b9084908111156110cb57fe5b0217905550610160919091015160089091018054911515600160b01b0260ff60b01b199092169190911790556040517f6ebc92daad9a595afde1082ecccf13b6f1961090718d46cc49b17b33a739300190611129908a908690613eae565b60405180910390a150506001606555505050505050565b600260655414156111635760405162461bcd60e51b81526004016104d290613e3e565b60026065556111706134bf565b60008281526098602090815260409182902082516101808101845281546001600160a01b03908116825260018084015494830194909452600283015481169482019490945260038201548416606082015260048201546080820152600582015460a0820152600682015460c0820152600782015460e0820152600882015460ff808216151561010080850191909152820490951661012083015290939192610140850192600160a81b9092049091169081111561122957fe5b600181111561123457fe5b815260089190910154600160b01b900460ff161515602091820152610120820151825191830151929350916001600160a01b03831633146112875760405162461bcd60e51b81526004016104d290613b32565b8360c0015142116112aa5760405162461bcd60e51b81526004016104d2906139db565b836101000151156112cd5760405162461bcd60e51b81526004016104d290613ba4565b600184610140015160018111156112e057fe5b146112fd5760405162461bcd60e51b81526004016104d29061390a565b60a08401516000868152609b602090815260408083206101208901516001600160a01b0316845290915290205410156113485760405162461bcd60e51b81526004016104d290613b5f565b600161010085018190526101608501526040516323b872dd60e01b81526001600160a01b038316906323b872dd9061138890309087908690600401613784565b600060405180830381600087803b1580156113a257600080fd5b505af11580156113b6573d6000803e3d6000fd5b505050506113c48486612e58565b6000858152609b60209081526040808320338452825280832080546001600160a01b03878116808752609c865284872088885286528487209290925560608a018051928752609d8652848720888852865284872080546001600160a01b031990811694841694909417905583548c8852609f8752858820559286905560988552948390208951815483169087161781559389015160018581019190915592890151600285018054831691871691909117905590516003840180549092169085161790556080870151600483015560a0870151600583015560c0870151600683015560e08701516007830155610100808801516008840180546101208b015160ff1990911692151592909217610100600160a81b031916919095169091021780845561014088015188949092909160ff60a81b191690600160a81b90849081111561150a57fe5b0217905550610160919091015160089091018054911515600160b01b0260ff60b01b199092169190911790556001600160a01b0382166000908152609c60209081526040808320848452909152908190205460608601516101208701519251600080516020613f2f83398151915293611589938a939092909190613ee4565b60405180910390a150506001606555505050565b609c60209081526000928352604080842090915290825290205481565b609e6020526000908152604090205460ff1681565b6098602052600090815260409020805460018201546002830154600384015460048501546005860154600687015460078801546008909801546001600160a01b0397881698969795861696948616959394929391929160ff80831692610100810490921691600160a81b8104821691600160b01b909104168c565b6002606554141561166d5760405162461bcd60e51b81526004016104d290613e3e565b600260655561167a6134bf565b60008381526098602090815260409182902082516101808101845281546001600160a01b03908116825260018084015494830194909452600283015481169482019490945260038201548416606082015260048201546080820152600582015460a0820152600682015460c0820152600782015460e0820152600882015460ff808216151561010080850191909152820490951661012083015290939192610140850192600160a81b9092049091169081111561173357fe5b600181111561173e57fe5b815260089190910154600160b01b900460ff1615156020918201526101208201518251838301516000888152609b8552604080822033835290955293842054949550919390929061179090879061307d565b9050846101000151156117b55760405162461bcd60e51b81526004016104d290613941565b8460c0015142106117d85760405162461bcd60e51b81526004016104d290613a87565b60608501516001600160a01b0316156117f25760006117f4565b855b34146118125760405162461bcd60e51b81526004016104d290613d7f565b60e08501516000888152609b602090815260408083206001600160a01b03891684529091529020546118439161307d565b8110156118625760405162461bcd60e51b81526004016104d290613d3c565b60608501516001600160a01b031615611904576097546040516323b872dd60e01b81526001600160a01b03909116906323b872dd906118a990339030908b90600401613784565b602060405180830381600087803b1580156118c357600080fd5b505af11580156118d7573d6000803e3d6000fd5b505050506040513d601f19601f820116820180604052508101906118fb91906136af565b61190457600080fd5b6000878152609b602090815260408083203384529091529020546119455733600090815260a060209081526040822080546001810182559083529120018790555b6000856101400151600181111561195857fe5b1415611d515784608001518110611bb757600161010086018190523361012087018190526101608701919091526000888152609b6020908152604080832084845290915290819020839055516323b872dd60e01b81526001600160a01b038516916323b872dd916119cf9130918790600401613784565b600060405180830381600087803b1580156119e957600080fd5b505af11580156119fd573d6000803e3d6000fd5b50505050611a0b8588612e58565b6001600160a01b038381166000818152609c6020908152604080832087845282528083208690558b8352609f825280832086905560608a018051948452609d8352818420888552835281842080546001600160a01b03199081169688169690961790558c8452609b835281842033855283528184208490558c845260988352928190208a5181548616908716178155918a0151600183810191909155908a015160028301805486169187169190911790559151600382018054909416908516179092556080880151600483015560a0880151600583015560c0880151600683015560e08801516007830155610100808901516008840180546101208c015160ff1990911692151592909217610100600160a81b031916919095169091021780845561014089015189949092909160ff60a81b191690600160a81b908490811115611b5157fe5b0217905550610160919091015160089091018054911515600160b01b0260ff60b01b199092169190911790556060850151610120860151604051600080516020613f2f83398151915292611baa928b9286929190613ee4565b60405180910390a1611d4c565b6000878152609b60209081526040808320338452909152902054611bdc90879061307d565b6000888152609b60209081526040808320338085529083528184209490945561012089019384528a83526098825291829020885181546001600160a01b03199081166001600160a01b03928316178355928a0151600180840191909155938a0151600283018054851691831691909117905560608a0151600383018054909416908216179092556080890151600482015560a0890151600582015560c0890151600682015560e08901516007820155610100808a0151600883018054965160ff1990971691151591909117610100600160a81b03191695909316029390931780825561014089015189949390929160ff60a81b191690600160a81b908490811115611ce357fe5b0217905550610160919091015160089091018054911515600160b01b0260ff60b01b199092169190911790556040517ffd7cfbd219ff1e7365436fb2930a026fa6704a1e0bb39ad104f0485c8c01124d90611d4390899089903390613ec5565b60405180910390a15b611f0a565b8460a00151811015611d755760405162461bcd60e51b81526004016104d290613cd4565b6000878152609b60209081526040808320338452909152902054611d9a90879061307d565b6000888152609b60209081526040808320338085529083528184209490945561012089019384528a83526098825291829020885181546001600160a01b03199081166001600160a01b03928316178355928a0151600180840191909155938a0151600283018054851691831691909117905560608a0151600383018054909416908216179092556080890151600482015560a0890151600582015560c0890151600682015560e08901516007820155610100808a0151600883018054965160ff1990971691151591909117610100600160a81b03191695909316029390931780825561014089015189949390929160ff60a81b191690600160a81b908490811115611ea157fe5b0217905550610160919091015160089091018054911515600160b01b0260ff60b01b199092169190911790556040517ffd7cfbd219ff1e7365436fb2930a026fa6704a1e0bb39ad104f0485c8c01124d90611f0190899089903390613ec5565b60405180910390a15b505060016065555050505050565b609a602052600090815260409020546001600160a01b031681565b60026065541415611f565760405162461bcd60e51b81526004016104d290613e3e565b60026065556001600160a01b0386166000908152609e6020526040902054869060ff16611f955760405162461bcd60e51b81526004016104d290613d0b565b6001600160a01b0388161580611fb857506097546001600160a01b038981169116145b611fd45760405162461bcd60e51b81526004016104d290613e75565b620a8c004201831115611ff95760405162461bcd60e51b81526004016104d2906139aa565b6040516323b872dd60e01b81526001600160a01b038816906323b872dd9061202990339030908b90600401613784565b600060405180830381600087803b15801561204357600080fd5b505af1158015612057573d6000803e3d6000fd5b50505050604051806101800160405280886001600160a01b03168152602001878152602001336001600160a01b03168152602001896001600160a01b0316815260200185815260200185815260200184815260200183815260200160001515815260200160006001600160a01b031681526020018660018111156120d757fe5b815260006020918201819052609954815260988252604090819020835181546001600160a01b03199081166001600160a01b03928316178355938501516001808401919091559285015160028301805486169183169190911790556060850151600383018054909516908216179093556080840151600482015560a0840151600582015560c0840151600682015560e084015160078201556101008085015160088301805461012088015160ff1990911692151592909217610100600160a81b03191691909516909102178084556101408501519193919260ff60a81b1990911690600160a81b9084908111156121ca57fe5b0217905550610160919091015160089091018054911515600160b01b0260ff60b01b199092169190911790556099546040517fdd11eaf2db1c16b640194c05b02faa4b8bc4abf29c61428e990e72c6c15cff779161222791613ea5565b60405180910390a15050609980546001908101909155606555505050505050565b6001600160a01b0316600090815260a0602052604090205490565b61226b6130ab565b6001600160a01b031661227c6123fd565b6001600160a01b0316146122a25760405162461bcd60e51b81526004016104d290613c9f565b6001600160a01b03919091166000908152609e60205260409020805460ff1916911515919091179055565b6122d56130ab565b6001600160a01b03166122e66123fd565b6001600160a01b03161461230c5760405162461bcd60e51b81526004016104d290613c9f565b6033546040516000916001600160a01b031690600080516020613f4f833981519152908390a3603380546001600160a01b0319169055565b600054610100900460ff168061235d575061235d6130af565b8061236b575060005460ff16155b6123875760405162461bcd60e51b81526004016104d290613bd9565b600054610100900460ff161580156123b2576000805460ff1961ff0019909116610100171660011790555b6123ba6130c0565b6123c2613152565b609780546001600160a01b03191673dd97ab35e3c0820215bc85a395e13671d84ccba217905580156123fa576000805461ff00191690555b50565b6033546001600160a01b031690565b6002606554141561242f5760405162461bcd60e51b81526004016104d290613e3e565b600260655561243c6134bf565b60008281526098602090815260409182902082516101808101845281546001600160a01b03908116825260018084015494830194909452600283015481169482019490945260038201548416606082015260048201546080820152600582015460a0820152600682015460c0820152600782015460e0820152600882015460ff808216151561010080850191909152820490951661012083015290939192610140850192600160a81b909204909116908111156124f557fe5b600181111561250057fe5b815260089190910154600160b01b900460ff1615156020909101526101208101519091506001600160a01b03811633141561253a57600080fd5b6000838152609b602090815260408083203384529091528120805491905560608301516001600160a01b031661259d57604051339082156108fc029083906000818181858888f19350505050158015612597573d6000803e3d6000fd5b50612623565b60975460405163a9059cbb60e01b81526001600160a01b039091169063a9059cbb906125cf90339085906004016137a8565b602060405180830381600087803b1580156125e957600080fd5b505af11580156125fd573d6000803e3d6000fd5b505050506040513d601f19601f8201168201806040525081019061262191906136af565b505b7fe1cb2f570d10844b5dc7b9f2d3deef8e3a7544b63f3d98223ac4a386dd1e46168433604051612654929190613eae565b60405180910390a1505060016065555050565b60a0602052816000526040600020818154811061268057fe5b90600052602060002001600091509150505481565b609f6020526000908152604090205481565b609b60209081526000928352604080842090915290825290205481565b6001600160a01b038316600090815260a060205260408120546060918291849086900381111561270c57506001600160a01b038616600090815260a060205260409020548590035b60608167ffffffffffffffff8111801561272557600080fd5b5060405190808252806020026020018201604052801561274f578160200160208202803683370190505b50905060608267ffffffffffffffff8111801561276b57600080fd5b50604051908082528060200260200182016040528015612795578160200160208202803683370190505b50905060005b83811015612855576001600160a01b038a16600090815260a06020526040902080548a83019081106127c957fe5b90600052602060002001548382815181106127e057fe5b602002602001018181525050609b60008483815181106127fc57fe5b6020026020010151815260200190815260200160002060008b6001600160a01b03166001600160a01b031681526020019081526020016000205482828151811061284257fe5b602090810291909101015260010161279b565b5090989097509501949350505050565b60995481565b609d6020908152600092835260408084209091529082529020546001600160a01b031681565b620a8c0081565b6128a06130ab565b6001600160a01b03166128b16123fd565b6001600160a01b0316146128d75760405162461bcd60e51b81526004016104d290613c9f565b6001600160a01b0381166128fd5760405162461bcd60e51b81526004016104d290613a0a565b6033546040516001600160a01b03808416921690600080516020613f4f83398151915290600090a3603380546001600160a01b0319166001600160a01b0392909216919091179055565b806129506134bf565b60008281526098602090815260409182902082516101808101845281546001600160a01b03908116825260018084015494830194909452600283015481169482019490945260038201548416606082015260048201546080820152600582015460a0820152600682015460c0820152600782015460e0820152600882015460ff808216151561010080850191909152820490951661012083015290939192610140850192600160a81b90920490911690811115612a0957fe5b6001811115612a1457fe5b81526008919091015460ff600160b01b90910416151560209091015260408101519091506001600160a01b03163314612a5f5760405162461bcd60e51b81526004016104d2906138db565b60026065541415612a825760405162461bcd60e51b81526004016104d290613e3e565b6002606555612a8f6134bf565b60008481526098602090815260409182902082516101808101845281546001600160a01b03908116825260018084015494830194909452600283015481169482019490945260038201548416606082015260048201546080820152600582015460a0820152600682015460c0820152600782015460e0820152600882015460ff808216151561010080850191909152820490951661012083015290939192610140850192600160a81b90920490911690811115612b4857fe5b6001811115612b5357fe5b815260089190910154600160b01b900460ff16151560209091015261010081015190915015612b945760405162461bcd60e51b81526004016104d290613973565b6101208101516001600160a01b0316612bbf5760405162461bcd60e51b81526004016104d290613c27565b80516020820151600161010084018190526101608401526101208301516040516323b872dd60e01b81526001600160a01b038416916323b872dd91612c0a9130918690600401613784565b600060405180830381600087803b158015612c2457600080fd5b505af1158015612c38573d6000803e3d6000fd5b50505050612c468387612e58565b6000868152609b60208181526040808420610120880180516001600160a01b03908116875282855283872054898216808952609c87528589208a8a5287528589209190915560608b018051918952609d87528589208a8a52875285892080546001600160a01b03199081169385169390931790558e8952878752835183168952848752858920548f8a52609f8852868a20559686528251821688529285528387208790558c875260988552958390208951815484169088161781559389015160018581019190915592890151600285018054841691881691909117905593516003840180549092169086161790556080870151600483015560a0870151600583015560c0870151600683015560e0870151600783015561010080880151600884018054955160ff1990961691151591909117610100600160a81b0319169490951602929092178084556101408701518794929390929160ff60a81b191690600160a81b908490811115612db557fe5b0217905550610160919091015160089091018054911515600160b01b0260ff60b01b199092169190911790556001600160a01b0382166000908152609c60209081526040808320848452909152908190205460608501516101208601519251600080516020613f2f83398151915293612e34938b939092909190613ee4565b60405180910390a15050600160655550505050565b6097546001600160a01b031681565b6101208201516000828152609b602090815260408083206001600160a01b0385168452909152812054612e9990606490612e939060056131c8565b90613202565b6000848152609b602090815260408083206001600160a01b038716845290915281205491925090612eca9083613244565b60608601519091506001600160a01b0316612f635784604001516001600160a01b03166108fc829081150290604051600060405180830381858888f19350505050158015612f1c573d6000803e3d6000fd5b50612f256123fd565b6001600160a01b03166108fc839081150290604051600060405180830381858888f19350505050158015612f5d573d6000803e3d6000fd5b50613076565b609754604080870151905163a9059cbb60e01b81526001600160a01b039092169163a9059cbb91612f989185906004016137a8565b602060405180830381600087803b158015612fb257600080fd5b505af1158015612fc6573d6000803e3d6000fd5b505050506040513d601f19601f82011682018060405250810190612fea91906136af565b506097546001600160a01b031663a9059cbb6130046123fd565b846040518363ffffffff1660e01b81526004016130229291906137a8565b602060405180830381600087803b15801561303c57600080fd5b505af1158015613050573d6000803e3d6000fd5b505050506040513d601f19601f8201168201806040525081019061307491906136af565b505b5050505050565b6000828201838110156130a25760405162461bcd60e51b81526004016104d290613a50565b90505b92915050565b3390565b60006130ba30613286565b15905090565b600054610100900460ff16806130d957506130d96130af565b806130e7575060005460ff16155b6131035760405162461bcd60e51b81526004016104d290613bd9565b600054610100900460ff1615801561312e576000805460ff1961ff0019909116610100171660011790555b61313661328c565b61313e61330d565b80156123fa576000805461ff001916905550565b600054610100900460ff168061316b575061316b6130af565b80613179575060005460ff16155b6131955760405162461bcd60e51b81526004016104d290613bd9565b600054610100900460ff161580156131c0576000805460ff1961ff0019909116610100171660011790555b61313e6133d5565b6000826131d7575060006130a5565b828202828482816131e457fe5b04146130a25760405162461bcd60e51b81526004016104d290613c5e565b60006130a283836040518060400160405280601a81526020017f536166654d6174683a206469766973696f6e206279207a65726f00000000000081525061345c565b60006130a283836040518060400160405280601e81526020017f536166654d6174683a207375627472616374696f6e206f766572666c6f770000815250613493565b3b151590565b600054610100900460ff16806132a557506132a56130af565b806132b3575060005460ff16155b6132cf5760405162461bcd60e51b81526004016104d290613bd9565b600054610100900460ff1615801561313e576000805460ff1961ff00199091166101001716600117905580156123fa576000805461ff001916905550565b600054610100900460ff168061332657506133266130af565b80613334575060005460ff16155b6133505760405162461bcd60e51b81526004016104d290613bd9565b600054610100900460ff1615801561337b576000805460ff1961ff0019909116610100171660011790555b60006133856130ab565b603380546001600160a01b0319166001600160a01b03831690811790915560405191925090600090600080516020613f4f833981519152908290a35080156123fa576000805461ff001916905550565b600054610100900460ff16806133ee57506133ee6130af565b806133fc575060005460ff16155b6134185760405162461bcd60e51b81526004016104d290613bd9565b600054610100900460ff16158015613443576000805460ff1961ff0019909116610100171660011790555b600160655580156123fa576000805461ff001916905550565b6000818361347d5760405162461bcd60e51b81526004016104d29190613888565b50600083858161348957fe5b0495945050505050565b600081848411156134b75760405162461bcd60e51b81526004016104d29190613888565b505050900390565b6040805161018081018252600080825260208201819052918101829052606081018290526080810182905260a0810182905260c0810182905260e0810182905261010081018290526101208101829052906101408201908152600060209091015290565b80356001600160a01b03811681146130a557600080fd5b60006020828403121561354b578081fd5b6130a28383613523565b600080600080600080600060e0888a03121561356f578283fd5b873561357a81613f0b565b9650602088013561358a81613f0b565b9550604088013594506060880135600281106135a4578384fd5b9699959850939660808101359560a0820135955060c0909101359350915050565b60008060008060008060c087890312156135dd578182fd5b6135e78888613523565b95506135f68860208901613523565b95989597505050506040840135936060810135936080820135935060a0909101359150565b6000806040838503121561362d578182fd5b6136378484613523565b9150602083013561364781613f20565b809150509250929050565b60008060408385031215613664578182fd5b61366e8484613523565b946020939093013593505050565b600080600060608486031215613690578283fd5b61369a8585613523565b95602085013595506040909401359392505050565b6000602082840312156136c0578081fd5b81516130a281613f20565b6000602082840312156136dc578081fd5b5035919050565b600080604083850312156136f5578182fd5b823591506137068460208501613523565b90509250929050565b60008060408385031215613721578182fd5b50508035926020909101359150565b6000815180845260208085019450808401835b8381101561375f57815187529582019590820190600101613743565b509495945050505050565b15159052565b6001600160a01b0391909116815260200190565b6001600160a01b039384168152919092166020820152604081019190915260600190565b6001600160a01b03929092168252602082015260400190565b6001600160a01b038d81168252602082018d90528b811660408301528a81166060830152608082018a905260a0820189905260c0820188905260e08201879052851515610100830152841661012082015261018081016002841061382157fe5b8361014083015261383661016083018461376a565b9d9c50505050505050505050505050565b60006060825261385a6060830186613730565b828103602084015261386c8186613730565b915050826040830152949350505050565b901515815260200190565b6000602080835283518082850152825b818110156138b457858101830151858201604001528201613898565b818111156138c55783604083870101525b50601f01601f1916929092016040019392505050565b60208082526015908201527426bab9ba1031329030bab1ba34b7b71037bbb732b960591b604082015260600190565b6020808252601f908201527f61756374696f6e206d757374206265206f662072657365727665207479706500604082015260600190565b602080825260189082015277185d58dd1a5bdb881a185cc81899595b881cd95d1d1b195960421b604082015260600190565b6020808252601a908201527f61756374696f6e20697320736574746c656420616c7265616479000000000000604082015260600190565b602080825260179082015276657863656564206d61782061756374696f6e2074696d6560481b604082015260600190565b602080825260159082015274185d58dd1a5bdb881a185cc81b9bdd08195b991959605a1b604082015260600190565b60208082526026908201527f4f776e61626c653a206e6577206f776e657220697320746865207a65726f206160408201526564647265737360d01b606082015260800190565b6020808252601b908201527f536166654d6174683a206164646974696f6e206f766572666c6f770000000000604082015260600190565b602080825260119082015270185d58dd1a5bdb881a185cc8195b991959607a1b604082015260600190565b6020808252602d908201527f6f6e6c7920616c6c6f77656420323420686f757273206166746572206175637460408201526c1a5bdb881a185cc8195b991959609a1b606082015260800190565b60208082526019908201527837b7363c903a30b933b2ba10383934b1b29030bab1ba34b7b760391b604082015260600190565b60208082526013908201527237b7363c903434b3b432b9ba103134b23232b960691b604082015260600190565b60208082526025908201527f6d7573742062696420657175616c206f7220686967686572207468616e207265604082015264736572766560d81b606082015260800190565b6020808252818101527f61756374696f6e2068617320616c7265616479206265656e20736574746c6564604082015260600190565b6020808252602e908201527f496e697469616c697a61626c653a20636f6e747261637420697320616c72656160408201526d191e481a5b9a5d1a585b1a5e995960921b606082015260800190565b6020808252601b908201527f6e65656420746f20686176652068696768657374206269646465720000000000604082015260600190565b60208082526021908201527f536166654d6174683a206d756c7469706c69636174696f6e206f766572666c6f6040820152607760f81b606082015260800190565b6020808252818101527f4f776e61626c653a2063616c6c6572206973206e6f7420746865206f776e6572604082015260600190565b6020808252601c908201527f6d7573742062696420686967686572207468616e207265736572766500000000604082015260600190565b602080825260179082015276135d5cdd081899481dda1a5d195b1a5cdd1959081b999d604a1b604082015260600190565b60208082526023908201527f6d7573742062696420686967686572207468616e2068696768657374206269646040820152623232b960e91b606082015260800190565b60208082526024908201527f737065636966696564207472616e7366657220616d6f756e74206d757374206d6040820152630c2e8c6d60e31b606082015260800190565b60208082526024908201527f6f6e6c7920616c6c6f7765642061667465722061756374696f6e2068617320656040820152631b99195960e21b606082015260800190565b6020808252601e908201527f63616e206f6e6c7920636c6f7365207461726765742061756374696f6e730000604082015260600190565b6020808252601f908201527f5265656e7472616e637947756172643a207265656e7472616e742063616c6c00604082015260600190565b6020808252601690820152753ab730b13632903a379030b1b1b2b83a103a37b5b2b760511b604082015260600190565b90815260200190565b9182526001600160a01b0316602082015260400190565b92835260208301919091526001600160a01b0316604082015260600190565b93845260208401929092526001600160a01b03908116604084015216606082015260800190565b6001600160a01b03811681146123fa57600080fd5b80151581146123fa57600080fdfe55390ad3bffeff90968b8c54d2ed0099a7dbd2d71bc56263a1abf5643f833fec8be0079c531659141344cd1fd0a4f28419497f9722a3daafe3b4186f6b6457e0a2646970667358221220003c6d99f0263b71da96ecc15dc73a9b59dc6edab63bd23d4bfd86372451df8764736f6c634300060c0033",
  "linkReferences": {},
  "deployedLinkReferences": {}
}