{
  "_format": "hh-sol-artifact-1",
  "contractName": "NFTMarketplace",
  "sourceName": "contracts/nft/NFTMarketplace.sol",
  "abi": [
    {
      "anonymous": false,
      "inputs": [
        {
          "indexed": false,
          "internalType": "uint256",
          "name": "auctionId",
          "type": "uint256"
        },
        {
          "indexed": false,
          "internalType": "uint256",
          "name": "amount",
          "type": "uint256"
        },
        {
          "indexed": false,
          "internalType": "address",
          "name": "highestBidder",
          "type": "address"
        }
      ],
      "name": "Bid",
      "type": "event"
    },
    {
      "anonymous": false,
      "inputs": [
        {
          "indexed": false,
          "internalType": "uint256",
          "name": "auctionId",
          "type": "uint256"
        }
      ],
      "name": "CloseAuction",
      "type": "event"
    },
    {
      "anonymous": false,
      "inputs": [
        {
          "indexed": false,
          "internalType": "uint256",
          "name": "auctionId",
          "type": "uint256"
        }
      ],
      "name": "EmergencyWithdrawal",
      "type": "event"
    },
    {
      "anonymous": false,
      "inputs": [
        {
          "indexed": false,
          "internalType": "uint256",
          "name": "auctionId",
          "type": "uint256"
        }
      ],
      "name": "List",
      "type": "event"
    },
    {
      "anonymous": false,
      "inputs": [
        {
          "indexed": true,
          "internalType": "address",
          "name": "previousOwner",
          "type": "address"
        },
        {
          "indexed": true,
          "internalType": "address",
          "name": "newOwner",
          "type": "address"
        }
      ],
      "name": "OwnershipTransferred",
      "type": "event"
    },
    {
      "anonymous": false,
      "inputs": [
        {
          "indexed": false,
          "internalType": "uint256",
          "name": "auctionId",
          "type": "uint256"
        },
        {
          "indexed": false,
          "internalType": "uint256",
          "name": "salesPrice",
          "type": "uint256"
        },
        {
          "indexed": false,
          "internalType": "address",
          "name": "token",
          "type": "address"
        },
        {
          "indexed": false,
          "internalType": "address",
          "name": "highestBidder",
          "type": "address"
        }
      ],
      "name": "Sold",
      "type": "event"
    },
    {
      "inputs": [],
      "name": "MAX_AUCTION_TIME",
      "outputs": [
        {
          "internalType": "uint256",
          "name": "",
          "type": "uint256"
        }
      ],
      "stateMutability": "view",
      "type": "function"
    },
    {
      "inputs": [
        {
          "internalType": "uint256",
          "name": "",
          "type": "uint256"
        }
      ],
      "name": "auctionOwner",
      "outputs": [
        {
          "internalType": "address",
          "name": "",
          "type": "address"
        }
      ],
      "stateMutability": "view",
      "type": "function"
    },
    {
      "inputs": [
        {
          "internalType": "uint256",
          "name": "",
          "type": "uint256"
        }
      ],
      "name": "auctions",
      "outputs": [
        {
          "internalType": "address",
          "name": "nftToken",
          "type": "address"
        },
        {
          "internalType": "uint256",
          "name": "nftTokenId",
          "type": "uint256"
        },
        {
          "internalType": "address payable",
          "name": "owner",
          "type": "address"
        },
        {
          "internalType": "address",
          "name": "token",
          "type": "address"
        },
        {
          "internalType": "uint256",
          "name": "targetPrice",
          "type": "uint256"
        },
        {
          "internalType": "uint256",
          "name": "reservePrice",
          "type": "uint256"
        },
        {
          "internalType": "uint256",
          "name": "endTime",
          "type": "uint256"
        },
        {
          "internalType": "uint256",
          "name": "minIncrement",
          "type": "uint256"
        },
        {
          "internalType": "bool",
          "name": "isSettled",
          "type": "bool"
        },
        {
          "internalType": "address payable",
          "name": "highestBidder",
          "type": "address"
        },
        {
          "internalType": "enum NFTMarketplace.AuctionType",
          "name": "auctionType",
          "type": "uint8"
        },
        {
          "internalType": "bool",
          "name": "isSold",
          "type": "bool"
        }
      ],
      "stateMutability": "view",
      "type": "function"
    },
    {
      "inputs": [],
      "name": "auctionsLength",
      "outputs": [
        {
          "internalType": "uint256",
          "name": "",
          "type": "uint256"
        }
      ],
      "stateMutability": "view",
      "type": "function"
    },
    {
      "inputs": [
        {
          "internalType": "uint256",
          "name": "auctionId",
          "type": "uint256"
        },
        {
          "internalType": "uint256",
          "name": "amount",
          "type": "uint256"
        }
      ],
      "name": "bid",
      "outputs": [],
      "stateMutability": "payable",
      "type": "function"
    },
    {
      "inputs": [
        {
          "internalType": "uint256",
          "name": "",
          "type": "uint256"
        },
        {
          "internalType": "address",
          "name": "",
          "type": "address"
        }
      ],
      "name": "bidBalance",
      "outputs": [
        {
          "internalType": "uint256",
          "name": "",
          "type": "uint256"
        }
      ],
      "stateMutability": "view",
      "type": "function"
    },
    {
      "inputs": [
        {
          "internalType": "uint256",
          "name": "auctionId",
          "type": "uint256"
        }
      ],
      "name": "claim",
      "outputs": [],
      "stateMutability": "nonpayable",
      "type": "function"
    },
    {
      "inputs": [
        {
          "internalType": "uint256",
          "name": "auctionId",
          "type": "uint256"
        }
      ],
      "name": "closeAuction",
      "outputs": [],
      "stateMutability": "nonpayable",
      "type": "function"
    },
    {
      "inputs": [
        {
          "internalType": "address",
          "name": "_token",
          "type": "address"
        },
        {
          "internalType": "address",
          "name": "_nftToken",
          "type": "address"
        },
        {
          "internalType": "uint256",
          "name": "_nftTokenId",
          "type": "uint256"
        },
        {
          "internalType": "uint256",
          "name": "_targetPrice",
          "type": "uint256"
        },
        {
          "internalType": "uint256",
          "name": "_endTime",
          "type": "uint256"
        },
        {
          "internalType": "uint256",
          "name": "_increment",
          "type": "uint256"
        }
      ],
      "name": "createAuction",
      "outputs": [],
      "stateMutability": "nonpayable",
      "type": "function"
    },
    {
      "inputs": [
        {
          "internalType": "uint256",
          "name": "auctionId",
          "type": "uint256"
        }
      ],
      "name": "emergencyWithdrawal",
      "outputs": [],
      "stateMutability": "nonpayable",
      "type": "function"
    },
    {
      "inputs": [
        {
          "internalType": "uint256",
          "name": "",
          "type": "uint256"
        }
      ],
      "name": "finalHighestBid",
      "outputs": [
        {
          "internalType": "uint256",
          "name": "",
          "type": "uint256"
        }
      ],
      "stateMutability": "view",
      "type": "function"
    },
    {
      "inputs": [],
      "name": "initialize",
      "outputs": [],
      "stateMutability": "nonpayable",
      "type": "function"
    },
    {
      "inputs": [
        {
          "internalType": "address",
          "name": "",
          "type": "address"
        },
        {
          "internalType": "uint256",
          "name": "",
          "type": "uint256"
        }
      ],
      "name": "lastPrice",
      "outputs": [
        {
          "internalType": "uint256",
          "name": "",
          "type": "uint256"
        }
      ],
      "stateMutability": "view",
      "type": "function"
    },
    {
      "inputs": [
        {
          "internalType": "address",
          "name": "",
          "type": "address"
        },
        {
          "internalType": "uint256",
          "name": "",
          "type": "uint256"
        }
      ],
      "name": "lastToken",
      "outputs": [
        {
          "internalType": "address",
          "name": "",
          "type": "address"
        }
      ],
      "stateMutability": "view",
      "type": "function"
    },
    {
      "inputs": [],
      "name": "owner",
      "outputs": [
        {
          "internalType": "address",
          "name": "",
          "type": "address"
        }
      ],
      "stateMutability": "view",
      "type": "function"
    },
    {
      "inputs": [
        {
          "internalType": "uint256",
          "name": "auctionId",
          "type": "uint256"
        }
      ],
      "name": "pickWinner",
      "outputs": [],
      "stateMutability": "nonpayable",
      "type": "function"
    },
    {
      "inputs": [],
      "name": "renounceOwnership",
      "outputs": [],
      "stateMutability": "nonpayable",
      "type": "function"
    },
    {
      "inputs": [
        {
          "internalType": "address",
          "name": "_token",
          "type": "address"
        },
        {
          "internalType": "bool",
          "name": "_active",
          "type": "bool"
        }
      ],
      "name": "setWhitelistedNFT",
      "outputs": [],
      "stateMutability": "nonpayable",
      "type": "function"
    },
    {
      "inputs": [],
      "name": "token",
      "outputs": [
        {
          "internalType": "contract IBEP20",
          "name": "",
          "type": "address"
        }
      ],
      "stateMutability": "view",
      "type": "function"
    },
    {
      "inputs": [
        {
          "internalType": "address",
          "name": "newOwner",
          "type": "address"
        }
      ],
      "name": "transferOwnership",
      "outputs": [],
      "stateMutability": "nonpayable",
      "type": "function"
    },
    {
      "inputs": [
        {
          "internalType": "address",
          "name": "",
          "type": "address"
        }
      ],
      "name": "whitelistedNFT",
      "outputs": [
        {
          "internalType": "bool",
          "name": "",
          "type": "bool"
        }
      ],
      "stateMutability": "view",
      "type": "function"
    },
    {
      "inputs": [
        {
          "internalType": "uint256",
          "name": "auctionId",
          "type": "uint256"
        }
      ],
      "name": "withdrawAll",
      "outputs": [],
      "stateMutability": "nonpayable",
      "type": "function"
    }
  ],
  "bytecode": "0x608060405234801561001057600080fd5b506132bf806100206000396000f3fe6080604052600436106101345760003560e01c80638129fc1c116100ab578063d3cc6eb21161006f578063d3cc6eb214610355578063ebd929891461036a578063edae3ccb1461038a578063f2fde38b1461039f578063f737d21d146103bf578063fc0c546a146103df57610134565b80638129fc1c146102cb5780638da5cb5b146102e0578063958e2d31146102f55780639b3e216b14610315578063a941e2f21461033557610134565b806355c832d4116100fd57806355c832d4146101f1578063571a26a01461021e578063598647f8146102565780635b5dacf1146102695780636109f2b914610296578063715018a6146102b657610134565b806239522c1461013957806312b3d2c11461015b578063236ed8f31461017b578063379607f51461019b5780633ea273bf146101bb575b600080fd5b34801561014557600080fd5b50610159610154366004612b89565b6103f4565b005b34801561016757600080fd5b50610159610176366004612ab6565b6107a5565b34801561018757600080fd5b50610159610196366004612b89565b610abb565b3480156101a757600080fd5b506101596101b6366004612b89565b610de3565b3480156101c757600080fd5b506101db6101d6366004612b43565b611252565b6040516101e8919061322c565b60405180910390f35b3480156101fd57600080fd5b5061021161020c366004612a9b565b61126f565b6040516101e89190612ccb565b34801561022a57600080fd5b5061023e610239366004612b89565b611284565b6040516101e89c9b9a99989796959493929190612c45565b610159610264366004612bcd565b6112ff565b34801561027557600080fd5b50610289610284366004612b89565b61198e565b6040516101e89190612bf4565b3480156102a257600080fd5b506101596102b1366004612b0c565b6119a9565b3480156102c257600080fd5b50610159611a13565b3480156102d757600080fd5b50610159611a9c565b3480156102ec57600080fd5b50610289611b55565b34801561030157600080fd5b50610159610310366004612b89565b611b64565b34801561032157600080fd5b506101db610330366004612b89565b611d86565b34801561034157600080fd5b506101db610350366004612ba1565b611d98565b34801561036157600080fd5b506101db611db5565b34801561037657600080fd5b50610289610385366004612b43565b611dbb565b34801561039657600080fd5b506101db611de1565b3480156103ab57600080fd5b506101596103ba366004612a9b565b611de8565b3480156103cb57600080fd5b506101596103da366004612b89565b611ea9565b3480156103eb57600080fd5b506102896123bd565b600260655414156104205760405162461bcd60e51b8152600401610417906131c5565b60405180910390fd5b600260655561042d612a20565b60008281526098602090815260409182902082516101808101845281546001600160a01b03908116825260018084015494830194909452600283015481169482019490945260038201548416606082015260048201546080820152600582015460a0820152600682015460c0820152600782015460e0820152600882015460ff808216151561010080850191909152820490951661012083015290939192610140850192600160a81b909204909116908111156104e657fe5b60018111156104f157fe5b815260089190910154600160b01b900460ff16151560209091015260c0810151909150620151800142116105375760405162461bcd60e51b815260040161041790612ed4565b6101208101516001600160a01b031633146105645760405162461bcd60e51b815260040161041790612f21565b6000828152609b60209081526040808320338452825280832080549084905561012085018481528685526098845293829020855181546001600160a01b03199081166001600160a01b03928316178355948701516001838101919091559387015160028301805487169183169190911790556060870151600383018054909616908216179094556080860151600482015560a0860151600582015560c0860151600682015560e0860151600782015561010080870151600883018054975160ff1990981691151591909117610100600160a81b031916969095160294909417808455610140860151919486949093909160ff60a81b191690600160a81b90849081111561066d57fe5b0217905550610160919091015160089091018054911515600160b01b0260ff60b01b1990921691909117905560608201516001600160a01b03166106de57604051339082156108fc029083906000818181858888f193505050501580156106d8573d6000803e3d6000fd5b50610764565b60975460405163a9059cbb60e01b81526001600160a01b039091169063a9059cbb906107109033908590600401612c2c565b602060405180830381600087803b15801561072a57600080fd5b505af115801561073e573d6000803e3d6000fd5b505050506040513d601f19601f820116820180604052508101906107629190612b6d565b505b7fcbba13897c2ac3f7fdb11e857b1a5a5c47f51e3fbeffa74d430f2b06177b45c083604051610793919061322c565b60405180910390a15050600160655550565b600260655414156107c85760405162461bcd60e51b8152600401610417906131c5565b60026065556001600160a01b0385166000908152609e6020526040902054859060ff166108075760405162461bcd60e51b8152600401610417906130c3565b6001600160a01b038716158061082a57506097546001600160a01b038881169116145b6108465760405162461bcd60e51b8152600401610417906131fc565b620a8c00420183111561086b5760405162461bcd60e51b815260040161041790612dfd565b6040516323b872dd60e01b81526001600160a01b038716906323b872dd9061089b90339030908a90600401612c08565b600060405180830381600087803b1580156108b557600080fd5b505af11580156108c9573d6000803e3d6000fd5b50505050604051806101800160405280876001600160a01b03168152602001868152602001336001600160a01b03168152602001886001600160a01b031681526020018581526020016000815260200184815260200183815260200160001515815260200160006001600160a01b031681526020016000600181111561094b57fe5b815260006020918201819052609954815260988252604090819020835181546001600160a01b03199081166001600160a01b03928316178355938501516001808401919091559285015160028301805486169183169190911790556060850151600383018054909516908216179093556080840151600482015560a0840151600582015560c0840151600682015560e084015160078201556101008085015160088301805461012088015160ff1990911692151592909217610100600160a81b03191691909516909102178084556101408501519193919260ff60a81b1990911690600160a81b908490811115610a3e57fe5b0217905550610160919091015160089091018054911515600160b01b0260ff60b01b199092169190911790556099546040517fdd11eaf2db1c16b640194c05b02faa4b8bc4abf29c61428e990e72c6c15cff7791610a9b9161322c565b60405180910390a150506099805460019081019091556065555050505050565b60026065541415610ade5760405162461bcd60e51b8152600401610417906131c5565b6002606555610aeb612a20565b60008281526098602090815260409182902082516101808101845281546001600160a01b03908116825260018084015494830194909452600283015481169482019490945260038201548416606082015260048201546080820152600582015460a0820152600682015460c0820152600782015460e0820152600882015460ff808216151561010080850191909152820490951661012083015290939192610140850192600160a81b90920490911690811115610ba457fe5b6001811115610baf57fe5b815260089190910154600160b01b900460ff16151560209091015261010081015190915015610bf05760405162461bcd60e51b815260040161041790612dc6565b8060c001514211610c135760405162461bcd60e51b815260040161041790613181565b80516020820151600161010084015260408084015190516323b872dd60e01b81526001600160a01b038416916323b872dd91610c559130918690600401612c08565b600060405180830381600087803b158015610c6f57600080fd5b505af1158015610c83573d6000803e3d6000fd5b505050600085815260986020908152604091829020865181546001600160a01b03199081166001600160a01b03928316178355928801516001808401919091559388015160028301805485169183169190911790556060880151600383018054909416908216179092556080870151600482015560a0870151600582015560c0870151600682015560e08701516007820155610100808801516008830180546101208b015160ff1990911692151592909217610100600160a81b0319169190941690910217808355610140880151889550919391929160ff60a81b1990911690600160a81b908490811115610d7457fe5b0217905550610160919091015160089091018054911515600160b01b0260ff60b01b199092169190911790556040517f35d12aee8d82758bbbe22033c0e4636151fb38714b5b680e94ffb30ef9e6222b90610dd090869061322c565b60405180910390a1505060016065555050565b60026065541415610e065760405162461bcd60e51b8152600401610417906131c5565b6002606555610e13612a20565b60008281526098602090815260409182902082516101808101845281546001600160a01b03908116825260018084015494830194909452600283015481169482019490945260038201548416606082015260048201546080820152600582015460a0820152600682015460c0820152600782015460e0820152600882015460ff808216151561010080850191909152820490951661012083015290939192610140850192600160a81b90920490911690811115610ecc57fe5b6001811115610ed757fe5b815260089190910154600160b01b900460ff161515602091820152610120820151825191830151929350916001600160a01b0383163314610f2a5760405162461bcd60e51b815260040161041790612f21565b8360c001514211610f4d5760405162461bcd60e51b815260040161041790612e34565b83610100015115610f705760405162461bcd60e51b815260040161041790612f93565b60018461014001516001811115610f8357fe5b14610fa05760405162461bcd60e51b815260040161041790612d58565b60a08401516000868152609b602090815260408083206101208901516001600160a01b031684529091529020541015610feb5760405162461bcd60e51b815260040161041790612f4e565b600161010085018190526101608501526040516323b872dd60e01b81526001600160a01b038316906323b872dd9061102b90309087908690600401612c08565b600060405180830381600087803b15801561104557600080fd5b505af1158015611059573d6000803e3d6000fd5b5050505061106784866123cc565b6000858152609b60209081526040808320338452825280832080546001600160a01b03878116808752609c865284872088885286528487209290925560608a018051928752609d8652848720888852865284872080546001600160a01b031990811694841694909417905583548c8852609f8752858820559286905560988552948390208951815483169087161781559389015160018581019190915592890151600285018054831691871691909117905590516003840180549092169085161790556080870151600483015560a0870151600583015560c0870151600683015560e08701516007830155610100808801516008840180546101208b015160ff1990911692151592909217610100600160a81b031916919095169091021780845561014088015188949092909160ff60a81b191690600160a81b9084908111156111ad57fe5b0217905550610160919091015160089091018054911515600160b01b0260ff60b01b199092169190911790556001600160a01b0382166000908152609c602090815260408083208484529091529081902054606086015161012087015192517f55390ad3bffeff90968b8c54d2ed0099a7dbd2d71bc56263a1abf5643f833fec9361123e938a939092909190613254565b60405180910390a150506001606555505050565b609c60209081526000928352604080842090915290825290205481565b609e6020526000908152604090205460ff1681565b6098602052600090815260409020805460018201546002830154600384015460048501546005860154600687015460078801546008909801546001600160a01b0397881698969795861696948616959394929391929160ff80831692610100810490921691600160a81b8104821691600160b01b909104168c565b600260655414156113225760405162461bcd60e51b8152600401610417906131c5565b600260655561132f612a20565b60008381526098602090815260409182902082516101808101845281546001600160a01b03908116825260018084015494830194909452600283015481169482019490945260038201548416606082015260048201546080820152600582015460a0820152600682015460c0820152600782015460e0820152600882015460ff808216151561010080850191909152820490951661012083015290939192610140850192600160a81b909204909116908111156113e857fe5b60018111156113f357fe5b815260089190910154600160b01b900460ff1615156020918201526101208201518251838301516000888152609b8552604080822033835290955293909320546101008501519495509193909291860190156114615760405162461bcd60e51b815260040161041790612d8f565b8460c0015142106114845760405162461bcd60e51b815260040161041790612ea9565b60608501516001600160a01b03161561149e5760006114a0565b855b34146114be5760405162461bcd60e51b81526004016104179061313d565b60e08501516000888152609b602090815260408083206001600160a01b0389168452909152902054018110156115065760405162461bcd60e51b8152600401610417906130fa565b60608501516001600160a01b0316156115a8576097546040516323b872dd60e01b81526001600160a01b03909116906323b872dd9061154d90339030908b90600401612c08565b602060405180830381600087803b15801561156757600080fd5b505af115801561157b573d6000803e3d6000fd5b505050506040513d601f19601f8201168201806040525081019061159f9190612b6d565b6115a857600080fd5b8460800151811061180d57600161010086018190523361012087018190526101608701919091526000888152609b6020908152604080832084845290915290819020839055516323b872dd60e01b81526001600160a01b038516916323b872dd916116199130918790600401612c08565b600060405180830381600087803b15801561163357600080fd5b505af1158015611647573d6000803e3d6000fd5b5050505061165585886123cc565b6001600160a01b038381166000818152609c6020908152604080832087845282528083208690558b8352609f825280832086905560608a018051948452609d8352818420888552835281842080546001600160a01b03199081169688169690961790558c8452609b835281842033855283528184208490558c845260988352928190208a5181548616908716178155918a0151600183810191909155908a015160028301805486169187169190911790559151600382018054909416908516179092556080880151600483015560a0880151600583015560c0880151600683015560e08801516007830155610100808901516008840180546101208c015160ff1990911692151592909217610100600160a81b031916919095169091021780845561014089015189949092909160ff60a81b191690600160a81b90849081111561179b57fe5b0217905550610160919091015160089091018054911515600160b01b0260ff60b01b1990921691909117905560608501516040517f55390ad3bffeff90968b8c54d2ed0099a7dbd2d71bc56263a1abf5643f833fec91611800918a9185918990613254565b60405180910390a1611980565b6000878152609b602090815260408083203380855290835281842080548b01905561012089019081528a84526098835292819020885181546001600160a01b03199081166001600160a01b03928316178355938a0151600183810191909155928a0151600283018054861691831691909117905560608a0151600383018054909516908216179093556080890151600482015560a0890151600582015560c0890151600682015560e08901516007820155610100808a0151600883018054965160ff1990971691151591909117610100600160a81b0319169590941602939093178083556101408901518994939092909160ff60a81b191690600160a81b90849081111561191757fe5b0217905550610160919091015160089091018054911515600160b01b0260ff60b01b199092169190911790556040517ffd7cfbd219ff1e7365436fb2930a026fa6704a1e0bb39ad104f0485c8c01124d9061197790899089903390613235565b60405180910390a15b505060016065555050505050565b609a602052600090815260409020546001600160a01b031681565b6119b16125f1565b6001600160a01b03166119c2611b55565b6001600160a01b0316146119e85760405162461bcd60e51b81526004016104179061308e565b6001600160a01b03919091166000908152609e60205260409020805460ff1916911515919091179055565b611a1b6125f1565b6001600160a01b0316611a2c611b55565b6001600160a01b031614611a525760405162461bcd60e51b81526004016104179061308e565b6033546040516000916001600160a01b0316907f8be0079c531659141344cd1fd0a4f28419497f9722a3daafe3b4186f6b6457e0908390a3603380546001600160a01b0319169055565b600054610100900460ff1680611ab55750611ab56125f5565b80611ac3575060005460ff16155b611adf5760405162461bcd60e51b815260040161041790612fc8565b600054610100900460ff16158015611b0a576000805460ff1961ff0019909116610100171660011790555b611b12612606565b611b1a612698565b609780546001600160a01b03191673dd97ab35e3c0820215bc85a395e13671d84ccba21790558015611b52576000805461ff00191690555b50565b6033546001600160a01b031690565b60026065541415611b875760405162461bcd60e51b8152600401610417906131c5565b6002606555611b94612a20565b60008281526098602090815260409182902082516101808101845281546001600160a01b03908116825260018084015494830194909452600283015481169482019490945260038201548416606082015260048201546080820152600582015460a0820152600682015460c0820152600782015460e0820152600882015460ff808216151561010080850191909152820490951661012083015290939192610140850192600160a81b90920490911690811115611c4d57fe5b6001811115611c5857fe5b815260089190910154600160b01b900460ff1615156020909101526101208101519091506001600160a01b038116331415611c9257600080fd5b6000838152609b602090815260408083203384529091528120805491905560608301516001600160a01b0316611cf557604051339082156108fc029083906000818181858888f19350505050158015611cef573d6000803e3d6000fd5b50611d7b565b60975460405163a9059cbb60e01b81526001600160a01b039091169063a9059cbb90611d279033908590600401612c2c565b602060405180830381600087803b158015611d4157600080fd5b505af1158015611d55573d6000803e3d6000fd5b505050506040513d601f19601f82011682018060405250810190611d799190612b6d565b505b505060016065555050565b609f6020526000908152604090205481565b609b60209081526000928352604080842090915290825290205481565b60995481565b609d6020908152600092835260408084209091529082529020546001600160a01b031681565b620a8c0081565b611df06125f1565b6001600160a01b0316611e01611b55565b6001600160a01b031614611e275760405162461bcd60e51b81526004016104179061308e565b6001600160a01b038116611e4d5760405162461bcd60e51b815260040161041790612e63565b6033546040516001600160a01b038084169216907f8be0079c531659141344cd1fd0a4f28419497f9722a3daafe3b4186f6b6457e090600090a3603380546001600160a01b0319166001600160a01b0392909216919091179055565b80611eb2612a20565b60008281526098602090815260409182902082516101808101845281546001600160a01b03908116825260018084015494830194909452600283015481169482019490945260038201548416606082015260048201546080820152600582015460a0820152600682015460c0820152600782015460e0820152600882015460ff808216151561010080850191909152820490951661012083015290939192610140850192600160a81b90920490911690811115611f6b57fe5b6001811115611f7657fe5b81526008919091015460ff600160b01b90910416151560209091015260408101519091506001600160a01b03163314611fc15760405162461bcd60e51b815260040161041790612d29565b60026065541415611fe45760405162461bcd60e51b8152600401610417906131c5565b6002606555611ff1612a20565b60008481526098602090815260409182902082516101808101845281546001600160a01b03908116825260018084015494830194909452600283015481169482019490945260038201548416606082015260048201546080820152600582015460a0820152600682015460c0820152600782015460e0820152600882015460ff808216151561010080850191909152820490951661012083015290939192610140850192600160a81b909204909116908111156120aa57fe5b60018111156120b557fe5b815260089190910154600160b01b900460ff161515602090910152610100810151909150156120f65760405162461bcd60e51b815260040161041790612dc6565b6101208101516001600160a01b03166121215760405162461bcd60e51b815260040161041790613016565b80516020820151600161010084018190526101608401526101208301516040516323b872dd60e01b81526001600160a01b038416916323b872dd9161216c9130918690600401612c08565b600060405180830381600087803b15801561218657600080fd5b505af115801561219a573d6000803e3d6000fd5b505050506121a883876123cc565b6000868152609b60208181526040808420610120880180516001600160a01b03908116875282855283872054898216808952609c87528589208a8a5287528589209190915560608b018051918952609d87528589208a8a52875285892080546001600160a01b03199081169385169390931790558e8952878752835183168952848752858920548f8a52609f8852868a20559686528251821688529285528387208790558c875260988552958390208951815484169088161781559389015160018581019190915592890151600285018054841691881691909117905593516003840180549092169086161790556080870151600483015560a0870151600583015560c0870151600683015560e0870151600783015561010080880151600884018054955160ff1990961691151591909117610100600160a81b0319169490951602929092178084556101408701518794929390929160ff60a81b191690600160a81b90849081111561231757fe5b0217905550610160919091015160089091018054911515600160b01b0260ff60b01b199092169190911790556001600160a01b0382166000908152609c602090815260408083208484529091529081902054606085015161012086015192517f55390ad3bffeff90968b8c54d2ed0099a7dbd2d71bc56263a1abf5643f833fec936123a8938b939092909190613254565b60405180910390a15050600160655550505050565b6097546001600160a01b031681565b6101208201516000828152609b602090815260408083206001600160a01b038516845290915281205461240d9060649061240790600561270e565b90612751565b6000848152609b602090815260408083206001600160a01b03871684529091528120549192509061243e9083612793565b60608601519091506001600160a01b03166124d75784604001516001600160a01b03166108fc829081150290604051600060405180830381858888f19350505050158015612490573d6000803e3d6000fd5b50612499611b55565b6001600160a01b03166108fc839081150290604051600060405180830381858888f193505050501580156124d1573d6000803e3d6000fd5b506125ea565b609754604080870151905163a9059cbb60e01b81526001600160a01b039092169163a9059cbb9161250c918590600401612c2c565b602060405180830381600087803b15801561252657600080fd5b505af115801561253a573d6000803e3d6000fd5b505050506040513d601f19601f8201168201806040525081019061255e9190612b6d565b506097546001600160a01b031663a9059cbb612578611b55565b846040518363ffffffff1660e01b8152600401612596929190612c2c565b602060405180830381600087803b1580156125b057600080fd5b505af11580156125c4573d6000803e3d6000fd5b505050506040513d601f19601f820116820180604052508101906125e89190612b6d565b505b5050505050565b3390565b6000612600306127d5565b15905090565b600054610100900460ff168061261f575061261f6125f5565b8061262d575060005460ff16155b6126495760405162461bcd60e51b815260040161041790612fc8565b600054610100900460ff16158015612674576000805460ff1961ff0019909116610100171660011790555b61267c6127db565b61268461285c565b8015611b52576000805461ff001916905550565b600054610100900460ff16806126b157506126b16125f5565b806126bf575060005460ff16155b6126db5760405162461bcd60e51b815260040161041790612fc8565b600054610100900460ff16158015612706576000805460ff1961ff0019909116610100171660011790555b612684612936565b60008261271d5750600061274b565b8282028284828161272a57fe5b04146127485760405162461bcd60e51b81526004016104179061304d565b90505b92915050565b600061274883836040518060400160405280601a81526020017f536166654d6174683a206469766973696f6e206279207a65726f0000000000008152506129bd565b600061274883836040518060400160405280601e81526020017f536166654d6174683a207375627472616374696f6e206f766572666c6f7700008152506129f4565b3b151590565b600054610100900460ff16806127f457506127f46125f5565b80612802575060005460ff16155b61281e5760405162461bcd60e51b815260040161041790612fc8565b600054610100900460ff16158015612684576000805460ff1961ff0019909116610100171660011790558015611b52576000805461ff001916905550565b600054610100900460ff168061287557506128756125f5565b80612883575060005460ff16155b61289f5760405162461bcd60e51b815260040161041790612fc8565b600054610100900460ff161580156128ca576000805460ff1961ff0019909116610100171660011790555b60006128d46125f1565b603380546001600160a01b0319166001600160a01b038316908117909155604051919250906000907f8be0079c531659141344cd1fd0a4f28419497f9722a3daafe3b4186f6b6457e0908290a3508015611b52576000805461ff001916905550565b600054610100900460ff168061294f575061294f6125f5565b8061295d575060005460ff16155b6129795760405162461bcd60e51b815260040161041790612fc8565b600054610100900460ff161580156129a4576000805460ff1961ff0019909116610100171660011790555b60016065558015611b52576000805461ff001916905550565b600081836129de5760405162461bcd60e51b81526004016104179190612cd6565b5060008385816129ea57fe5b0495945050505050565b60008184841115612a185760405162461bcd60e51b81526004016104179190612cd6565b505050900390565b6040805161018081018252600080825260208201819052918101829052606081018290526080810182905260a0810182905260c0810182905260e0810182905261010081018290526101208101829052906101408201908152600060209091015290565b80356001600160a01b038116811461274b57600080fd5b600060208284031215612aac578081fd5b6127488383612a84565b60008060008060008060c08789031215612ace578182fd5b612ad88888612a84565b9550612ae78860208901612a84565b95989597505050506040840135936060810135936080820135935060a0909101359150565b60008060408385031215612b1e578182fd5b612b288484612a84565b91506020830135612b388161327b565b809150509250929050565b60008060408385031215612b55578182fd5b612b5f8484612a84565b946020939093013593505050565b600060208284031215612b7e578081fd5b81516127488161327b565b600060208284031215612b9a578081fd5b5035919050565b60008060408385031215612bb3578182fd5b82359150612bc48460208501612a84565b90509250929050565b60008060408385031215612bdf578182fd5b50508035926020909101359150565b15159052565b6001600160a01b0391909116815260200190565b6001600160a01b039384168152919092166020820152604081019190915260600190565b6001600160a01b03929092168252602082015260400190565b6001600160a01b038d81168252602082018d90528b811660408301528a81166060830152608082018a905260a0820189905260c0820188905260e082018790528515156101008301528416610120820152610180810160028410612ca557fe5b83610140830152612cba610160830184612bee565b9d9c50505050505050505050505050565b901515815260200190565b6000602080835283518082850152825b81811015612d0257858101830151858201604001528201612ce6565b81811115612d135783604083870101525b50601f01601f1916929092016040019392505050565b60208082526015908201527426bab9ba1031329030bab1ba34b7b71037bbb732b960591b604082015260600190565b6020808252601f908201527f61756374696f6e206d757374206265206f662072657365727665207479706500604082015260600190565b60208082526018908201527f61756374696f6e20686173206265656e20736574746c65640000000000000000604082015260600190565b6020808252601a908201527f61756374696f6e20697320736574746c656420616c7265616479000000000000604082015260600190565b60208082526017908201527f657863656564206d61782061756374696f6e2074696d65000000000000000000604082015260600190565b602080825260159082015274185d58dd1a5bdb881a185cc81b9bdd08195b991959605a1b604082015260600190565b60208082526026908201527f4f776e61626c653a206e6577206f776e657220697320746865207a65726f206160408201526564647265737360d01b606082015260800190565b602080825260119082015270185d58dd1a5bdb881a185cc8195b991959607a1b604082015260600190565b6020808252602d908201527f6f6e6c7920616c6c6f77656420323420686f757273206166746572206175637460408201526c1a5bdb881a185cc8195b991959609a1b606082015260800190565b60208082526013908201527237b7363c903434b3b432b9ba103134b23232b960691b604082015260600190565b60208082526025908201527f6d7573742062696420657175616c206f7220686967686572207468616e207265604082015264736572766560d81b606082015260800190565b6020808252818101527f61756374696f6e2068617320616c7265616479206265656e20736574746c6564604082015260600190565b6020808252602e908201527f496e697469616c697a61626c653a20636f6e747261637420697320616c72656160408201526d191e481a5b9a5d1a585b1a5e995960921b606082015260800190565b6020808252601b908201527f6e65656420746f20686176652068696768657374206269646465720000000000604082015260600190565b60208082526021908201527f536166654d6174683a206d756c7469706c69636174696f6e206f766572666c6f6040820152607760f81b606082015260800190565b6020808252818101527f4f776e61626c653a2063616c6c6572206973206e6f7420746865206f776e6572604082015260600190565b60208082526017908201527f4d7573742062652077686974656c6973746564206e6674000000000000000000604082015260600190565b60208082526023908201527f6d7573742062696420686967686572207468616e2068696768657374206269646040820152623232b960e91b606082015260800190565b60208082526024908201527f737065636966696564207472616e7366657220616d6f756e74206d757374206d6040820152630c2e8c6d60e31b606082015260800190565b60208082526024908201527f6f6e6c7920616c6c6f7765642061667465722061756374696f6e2068617320656040820152631b99195960e21b606082015260800190565b6020808252601f908201527f5265656e7472616e637947756172643a207265656e7472616e742063616c6c00604082015260600190565b6020808252601690820152753ab730b13632903a379030b1b1b2b83a103a37b5b2b760511b604082015260600190565b90815260200190565b92835260208301919091526001600160a01b0316604082015260600190565b93845260208401929092526001600160a01b03908116604084015216606082015260800190565b8015158114611b5257600080fdfea2646970667358221220d6ca69848b07445a5ae101e4c7853d62b3e96c4502b0f6c9276ef75996f8dcc564736f6c634300060c0033",
  "linkReferences": {},
  "deployedLinkReferences": {}
}